:100000000C94B7000C94DF000C94DF000C94DF001C
:100010000C94DF000C94DF000C94DF000C94DF00E4
:100020000C94DF000C94DF000C94DF000C94DF00D4
:100030000C94DF000C9408020C94E3010C94DF0094
:100040000C94DF000C94DF000C94DF000C94DF00B4
:100050000C94DF000C94DF000C94DF000C94DF00A4
:100060000C94DF000C94DF006E616E00696E660018
:1000700000407A10F35A00A0724E18090010A5D45F
:10008000E80000E87648170000E40B54020000CABC
:100090009A3B000000E1F505000080969800000002
:1000A00040420F000000A086010000001027000061
:1000B0000000E803000000006400000000000A00E7
:1000C000000000000100000000002C76D888DC67EA
:1000D0004F0823DFC1DFAE59E1B1B796E5E3E45342
:1000E000C63AE651997696E8E6C28426EB898C9B5F
:1000F00062ED407C6FFCEFBC9C9F40F2BAA56FA5FF
:10010000F490055A2AF75C936B6CF9676DC11BFC80
:10011000E0E40D47FEF520E6B500D0ED902E03009B
:10012000943577050080841E080000204E0A0000E8
:1001300000C80C333333330F986E12831141EF8DA7
:100140002114893BE65516CFFEE6DB18D1844B38E7
:100150001BF77C1D901DA4BBE424203284725E2218
:100160008100C9F124ECA1E53D2774045705112451
:100170001FBECFEFD8E0DEBFCDBF11E0A0E0B1E001
:10018000ECE4FAE102C005900D92A439B107D9F769
:1001900021E0A4E9B1E001C01D92AA3EB207E1F757
:1001A00010E0C7EBD0E004C02197FE010E946C0B69
:1001B000C53BD107C9F70E9456040C94240D0C943A
:1001C00000001F93CF93DF93EC01162F188619863A
:1001D0000E948D041A87DF91CF911F9108950F938C
:1001E0001F93CF938C01C62FFC0182851086880F48
:1001F0000E949604F8018085883059F091E0980FAC
:100200009087E80FF11DC083F8018085882309F4E9
:100210004EC0C0E0F801EC0FF11D80810E94C104C6
:10022000811145C0CF5FF8018085C81798F33FC0A2
:10023000F801918580859817B1F041E0490F418719
:10024000E90FF11D208130E08417D1F19E5FF801A4
:100250009187E40FF11D4081342B981789F19F5F3E
:10026000F80191872DC020E030E02AC081E0F8013C
:1002700080870E94D304F8018083C08581E08C0FC1
:1002800080870E94D304F801EC0FF11D8083F801F0
:10029000C08581E08C0F80870E94DE04F801EC0F9E
:1002A000F11D8083F80111860E94BD04C1CFF801C1
:1002B0008285880F81600E9496048823B9F2B8CFA6
:1002C000C901CF911F910F9108950E94EF00BC01C9
:1002D00080E090E00E9473062AE037ED43EA5CE399
:1002E0000E942A0723E333E948E853E40E945E05AD
:1002F000089567E00E946501089566E00E94650127
:10030000089580E28AB91BB85D980895CF92DF9274
:10031000EF92FF920F931F93CF938C015D988AE029
:100320008A95F1F700C05D9AEAE6EA95F1F700C018
:100330005D984E9BFECFE4E8F0E011821082608170
:10034000718180E090E00E9473066B017C01F8945B
:1003500099B1C92FC07496FDFBCF78944091840069
:1003600050918500BA0180E090E00E947306A701D9
:1003700096010E945E0520E030E040E05FE30E94CD
:100380002A076B017C0120E030E445EB56E40E9433
:100390002507181674F020E030E048E652E4C70163
:1003A000B6010E94CB05F801608371838283938339
:1003B00001C0C1E08C2FCF911F910F91FF90EF9062
:1003C000DF90CF9008951F920F920FB60F921124D5
:1003D0008F939F93AF93BF938091940190919501D8
:1003E000A0919601B09197010196A11DB11D809336
:1003F000940190939501A0939601B0939701BF91BA
:10040000AF919F918F910F900FBE0F901F901895F5
:100410001F920F920FB60F9211240F900FBE0F90E4
:100420001F901895F89416BC1092850010928400C5
:1004300084B5826084BD89EF87BDEEE6F0E08081FF
:1004400082608083EFE6F0E080818160808385B503
:10045000836085BDE1E8F0E08081826080837894EC
:1004600060E875E288ED91E00E94E90484EA91E099
:100470000E94810108952F923F924F925F926F9256
:100480007F928F929F92AF92BF92CF92DF92EF9224
:10049000FF920F931F93CF93DF93CDB7DEB7C7586B
:1004A000D2400FB6F894DEBF0FBECDBF19821A82BC
:1004B0001B821C82FE01359680EF91E0DF019C01DA
:1004C0001D9221503040E1F784EA91E00E948601BC
:1004D000C0909401D0909501E0909601F090970122
:1004E0008DEC91E00E947D01562E472E382E292E4C
:1004F0008DEC91E00E947901162F072FB82EA92EBE
:1005000082EC91E00E947D01CE58DD4F6883C25796
:10051000D240CD58DD4F7883C357D240CC58DD4F01
:100520008883C457D240CB58DD4F9883C557D240FB
:1005300082EC91E00E947901CA58DD4F6883C6576A
:10054000D240C958DD4F7883C757D240C858DD4FD5
:100550008883C857D240C758DD4F9883C957D240C7
:1005600087EB91E00E947D01C658DD4F6883CA5732
:10057000D240C558DD4F7883CB57D240C458DD4FA9
:100580008883CC57D240C358DD4F9883CD57D24093
:1005900087EB91E00E947901C258DD4F6883CE5706
:1005A000D240C158DD4F7883CF57D240C058DD4F7D
:1005B0008883C058D240CF57DD4F9883C158D2406E
:1005C0008CEA91E00E947D01CE57DD4F6883C258CE
:1005D000D240CD57DD4F7883C358D240CC57DD4F42
:1005E0008883C458D240CB57DD4F9883C558D2403A
:1005F0008CEA91E00E947901CA57DD4F6883C658A2
:10060000D240C957DD4F7883C758D240782E692E23
:100610000F2EF4EA8F2EF1E09F2EF02DD4016D9174
:100620007D918D919C91FF92EF92DF92CF921F92DC
:100630001F921F921F920E943D067F936F932F92ED
:100640003F924F925F92AF92BF920F931F931F9270
:1006500081E08F9380E091E09F938F938E010B5008
:100660001E4F1F930F930E94A30CB801CE01019659
:100670000E94550CF4016081718182819381FF9207
:10068000EF92DF92CF921F921F921F921F920E94B1
:100690003D067F936F93CB58DD4FF881C557D2400D
:1006A000FF93CC58DD4F2881C457D2402F93CD58AB
:1006B000DD4F3881C357D2403F93CE58DD4F8881FC
:1006C000C257D2408F93C758DD4F9881C957D24047
:1006D0009F93C858DD4FA881C857D240AF93C958DF
:1006E000DD4FB881C757D240BF93CA58DD4FE8816C
:1006F000C657D240EF931F9282E08F930F2EF1E006
:10070000AF2EF1E0BF2EF02DBF92AF921F930F934B
:100710000E94A30C0FB6F894DEBF0FBECDBFB80188
:10072000CE0101960E94550CD4016D917D918D9161
:100730009C91FF92EF92DF92CF921F921F921F9295
:100740001F920E943D067F936F93C358DD4FB8817F
:10075000CD57D240BF93C458DD4FE881CC57D2402B
:10076000EF93C558DD4FF881CB57D240FF93C65861
:10077000DD4F2881CA57D2402F93CF57DD4F3881A4
:10078000C158D2403F93C058DD4F8881C058D240F5
:100790008F93C158DD4F9881CF57D2409F93C25855
:1007A000DD4FA881CE57D240AF931F9283E08F9345
:1007B000BF92AF921F930F930E94A30CB801CE017A
:1007C00001960E94550CF4016081718182819381B0
:1007D000FF92EF92DF92CF921F921F921F921F9271
:1007E0000E943D067F936F93CB57DD4FF881C5582C
:1007F000D240FF93CC57DD4F2881C458D2402F936D
:10080000CD57DD4F3881C358D2403F93CE57DD4F8F
:100810008881C258D2408F936F927F92C957DD4F23
:100820009881C758D2409F93CA57DD4FA881C658B8
:10083000D240AF931F9284E08F9388E491E09F931E
:100840008F931F930F930E94A30C0FB6F894DEBFF3
:100850000FBECDBFB801CE0101960E94550CBE015E
:100860006F5F7F4F88ED91E00E943B0560E971E08A
:1008700088ED91E00E943B05C957DD4F0FB6F89413
:10088000DEBF0FBECDBFDF91CF911F910F91FF90C3
:10089000EF90DF90CF90BF90AF909F908F907F9020
:1008A0006F905F904F903F902F9008950E9412029A
:1008B000C0909401D0909501E0909601F09097013E
:1008C0000E943B028091940190919501A091960124
:1008D000B09197018C199D09AE09BF098B3F910515
:1008E000A105B10578F3E4CF6AE58DEC91E00E94B3
:1008F000E1006EE582EC91E00E94E1006CE587EB9F
:1009000091E00E94E1006DE58CEA91E00E94E10037
:1009100088E991E00E945005089517B880E388B9EE
:100920001092B90088E48093B800089594EA9093F7
:10093000BC00ECEBF0E090819923ECF79091B900CA
:10094000987F983011F09031A1F48093BB0084E837
:100950008093BC00ECEBF0E080818823ECF7909171
:10096000B900987F983139F081E0903429F480E023
:10097000089581E0089580E0089584E98093BC00A3
:1009800008958093BB0084E88093BC00ECEBF0E01A
:1009900080818823ECF79091B900987F81E09832AC
:1009A00009F480E0089584EC8093BC00ECEBF0E067
:1009B00080818823ECF78091BB00089584E88093C0
:1009C000BC00ECEBF0E080818823ECF78091BB0069
:1009D00008950F931F938B01770F220B330BD901CF
:1009E000C80180589B47A14EBF4F880F991FAA1F6F
:1009F000BB1F880F991FAA1FBB1FBC01CD01660F2B
:100A0000771F881F991F000F111F221F331F000F10
:100A1000111F221F331FA9019801220F331F441FEA
:100A2000551F220F331F441F551F0E94130BDA015D
:100A3000C9010197A109B109892F9A2FAB2FBB27B3
:100A40008093C50021502093C400E1ECF0E088E1E0
:100A5000808386E08093C200808180688083789460
:100A60001F910F910895E0ECF0E0808185FFFDCFAC
:100A70006093C60008950F931F93CF93DF93EB010C
:100A80006881662341F08C012196C8010E943305DC
:100A900069916111FACFDF91CF911F910F91089564
:100AA000FC0189E281831382128214820895E0EEB0
:100AB000F1E0108611860E948D0408955058BB27DE
:100AC000AA270E9476050C94EB060E94DD0638F0FA
:100AD0000E94E40620F039F49F3F19F426F40C94A8
:100AE000DA060EF4E095E7FB0C94D406E92F0E9499
:100AF000FC0658F3BA17620773078407950720F0BE
:100B000079F4A6F50C941E070EF4E0950B2EBA2F7F
:100B1000A02D0B01B90190010C01CA01A001112403
:100B2000FF27591B99F0593F50F4503E68F11A16AF
:100B3000F040A22F232F342F4427585FF3CF469540
:100B400037952795A795F0405395C9F77EF41F1662
:100B5000BA0B620B730B840BBAF09150A1F0FF0F2C
:100B6000BB1F661F771F881FC2F70EC0BA0F621F18
:100B7000731F841F48F4879577956795B795F79508
:100B80009E3F08F0B0CF9395880F08F09927EE0F9D
:100B90009795879508950E94DF050C94EB060E94B7
:100BA000E40658F00E94DD0640F029F45F3F29F08A
:100BB0000C94D40651110C941F070C94DA060E9471
:100BC000FC0668F39923B1F3552391F3951B550B5C
:100BD000BB27AA2762177307840738F09F5F5F4F10
:100BE000220F331F441FAA1FA9F335D00E2E3AF04F
:100BF000E0E832D091505040E695001CCAF72BD067
:100C0000FE2F29D0660F771F881FBB1F26173707B7
:100C10004807AB07B0E809F0BB0B802DBF01FF27E9
:100C200093585F4F3AF09E3F510578F00C94D406EC
:100C30000C941F075F3FE4F3983ED4F386957795B5
:100C40006795B795F7959F5FC9F7880F911D9695A2
:100C5000879597F90895E1E0660F771F881FBB1FFE
:100C6000621773078407BA0720F0621B730B840BAB
:100C7000BA0BEE1F88F7E09508950E944406689429
:100C8000B1110C941F0708950E94040788F09F5724
:100C900098F0B92F9927B751B0F0E1F0660F771FA0
:100CA000881F991F1AF0BA95C9F714C0B13091F096
:100CB0000E941E07B1E008950C941E07672F782F3D
:100CC0008827B85F39F0B93FCCF38695779567955B
:100CD000B395D9F73EF490958095709561957F4FC7
:100CE0008F4F9F4F0895E89409C097FB3EF490956D
:100CF0008095709561957F4F8F4F9F4F9923A9F0F5
:100D0000F92F96E9BB279395F69587957795679583
:100D1000B795F111F8CFFAF4BB0F11F460FF1BC0C7
:100D20006F5F7F4F8F4F9F4F16C0882311F096E95A
:100D300011C0772321F09EE8872F762F05C0662308
:100D400071F096E8862F70E060E02AF09A95660FC1
:100D5000771F881FDAF7880F9695879597F908957A
:100D6000990F0008550FAA0BE0E8FEEF16161706BC
:100D7000E807F907C0F012161306E407F50798F024
:100D8000621B730B840B950B39F40A2661F0232B3D
:100D9000242B252B21F408950A2609F4A140A695B9
:100DA0008FEF811D811D089597F99F6780E870E09E
:100DB00060E008959FEF80EC089500240A941616D1
:100DC000170618060906089500240A941216130639
:100DD000140605060895092E0394000C11F48823C7
:100DE00052F0BB0F40F4BF2B11F460FF04C06F5FE3
:100DF0007F4F8F4F9F4F089557FD9058440F551FB9
:100E000059F05F3F71F04795880F97FB991F61F08C
:100E10009F3F79F087950895121613061406551F03
:100E2000F2CF4695F1DF08C0161617061806991F6F
:100E3000F1CF86957105610508940895E894BB2764
:100E400066277727CB0197F908950E94B00608F42A
:100E50008FEF08950E943D070C94EB060E94DD067B
:100E600038F00E94E40620F0952311F00C94D4068B
:100E70000C94DA0611240C941F070E94FC0670F3F0
:100E8000959FC1F3950F50E0551F629FF001729F2F
:100E9000BB27F00DB11D639FAA27F00DB11DAA1F3E
:100EA000649F6627B00DA11D661F829F2227B00D8B
:100EB000A11D621F739FB00DA11D621F839FA00D16
:100EC000611D221F749F3327A00D611D231F849F66
:100ED000600D211D822F762F6A2F11249F575040BD
:100EE0009AF0F1F088234AF0EE0FFF1FBB1F661F38
:100EF000771F881F91505040A9F79E3F510580F001
:100F00000C94D4060C941F075F3FE4F3983ED4F38F
:100F1000869577956795B795F795E7959F5FC1F7A4
:100F2000FE2B880F911D9695879597F90895A3E15B
:100F3000B0E0EDE9F7E00C94350B6C014B012A01B0
:100F4000FC0117821682838181FF43C3AE014F5F8C
:100F50005F4F3A01F6019381F40193FD859193FF70
:100F600081914F01882309F430C3853239F493FD10
:100F7000859193FF81914F01853239F4B60190E05C
:100F80000E946B0C52012501E5CF10E0F12C20E00E
:100F90002032A0F48B3269F030F4803259F0833281
:100FA00069F420612CC08D3239F0803339F421602E
:100FB00026C02260246023C0286021C027FD27C0EE
:100FC00030ED380F3A3078F426FF06C0FAE01F9F64
:100FD000300D1124132F13C04AE0F49E300D11245C
:100FE000F32E20620CC08E3221F426FDEEC2206466
:100FF00006C08C3611F4206802C0883641F4F40132
:1010000093FD859193FF81914F018111C1CF9BEB9E
:10101000980F933018F42061805E06C09BE9980F0A
:10102000933008F071C12F7E26FF16E02F73322E09
:10103000853619F42064322E08C0863621F4F22F4A
:10104000F0683F2E02C01111115037FE07C01C334B
:1010500050F4EE24E394E10E27E00BC0183038F092
:1010600027E017E005C027E04CE3E42E02C0212F63
:10107000E12C520144E0A40EB11CF20160817181A7
:10108000828193810E2DA3010E94720B2C01098194
:1010900000FF02C003FF07C031FC08C032FE09C0D8
:1010A00030E2232E07C02DE2222E04C09BE2292E1F
:1010B00001C0212C802F8C7019F0211068C2A8C2A9
:1010C00037FE0FC0E40C04FF04C08A81813309F4A9
:1010D000EA941E1474F5F8E0FE1578F588E0E82E21
:1010E0002CC036FC2AC0812F90E0841595059CF019
:1010F0002CEF42162FEF520674F0432D4068342E29
:101100000AC0E2E0F0E0EC0FFD1FE10FF11D80816D
:10111000803319F411501111F4CF37FE0EC0EE24B4
:10112000E394E10E812F90E0481659062CF414192F
:1011300004C0EE24E39401C010E037FE06C014148E
:10114000150434F4C201019605C085E090E002C0A8
:1011500081E090E021100196112331F0212F30E041
:101160002F5F3F4F820F931F2F2D30E08217930781
:1011700014F4F81A01C0F12C832D897049F4FF2072
:1011800039F0B60180E290E00E946B0CFA94F7CF40
:10119000222029F0B601822D90E00E946B0C33FCD6
:1011A00009C0FF2039F0B60180E390E00E946B0C8B
:1011B000FA94F7CF37FE5AC0942D852D57FE02C002
:1011C00090E080E0292E382E20E030E0A2014E1978
:1011D00051095D874C87A201421953095F874E87E9
:1011E000612F70E044275527461B570B598B488BBE
:1011F0005FEF2516350649F4B6018EE290E02A8BA2
:101200003B8B0E946B0C3B892A89421453046CF07F
:101210004C855D854215530544F4EE85FF85E20F4C
:10122000F31FE60DF71D818101C080E351E0251A0F
:1012300031082F5F3F4F48895989241635064CF0F5
:10124000B60190E02A8B3B8B0E946B0C2A893B896C
:10125000CFCF2414350439F49A81963318F495339A
:1012600011F404FF81E3B60190E04BC08A81813321
:1012700009F00F7EB60190E00E946B0C111105C0C1
:1012800034FC18C085E690E017C0B6018EE290E00D
:101290000E946B0C82E0EE24E394E80EF301E80F69
:1012A000F11D8081B60190E00E946B0C11508E2DD3
:1012B00091F7E6CF85E490E0B6010E946B0C57FCF5
:1012C00005C04114510439F404FF05C05194419400
:1012D00051088DE201C08BE2B60190E00E946B0CD8
:1012E00080E39AE0491651042CF08F5F5AE0451ACA
:1012F0005108F7CFB60190E00E946B0CB601C20115
:10130000C0960E946B0C57C1833631F0833779F059
:10131000833509F058C021C05201E2E0AE0EB11C85
:10132000F2018081898301E010E0230114C05201A1
:10133000F2E0AF0EB11CF2014080518026FF03C0E5
:10134000612F70E002C06FEF7FEFC2012A8B0E9415
:10135000600C8C012A892F7715C05201F2E0AF0E84
:10136000B11CF2014080518026FF03C0612F70E064
:1013700002C06FEF7FEFC2012A8B0E944A0C8C01E2
:101380002A892068322E23FD1AC08F2D90E008177D
:101390001907A8F4B60180E290E00E946B0CFA9461
:1013A000F4CFF20137FC859137FE81912F01B60110
:1013B00090E00E946B0CF110FA9401501109011594
:1013C000110579F7F8C0843611F0893659F55201C4
:1013D00027FF09C0F4E0AF0EB11CF20160817181FA
:1013E000828193810AC0F2E0AF0EB11CF2016081EC
:1013F0007181072E000C880B990B2F76322E97FFE8
:1014000009C090958095709561957F4F8F4F9F4F44
:101410002068322E2AE030E0A3010E94C60CE82E9C
:10142000E6183FC0022F853721F40F7E2AE030E016
:101430001DC0097F8F3691F018F4883559F0C5C06A
:10144000803719F0883711F0C0C0006104FF09C06F
:10145000046007C024FF08C0066006C028E030E032
:1014600005C020E130E002C020E132E0520107FF78
:1014700009C0F4E0AF0EB11CF2016081718182817C
:10148000938108C0F2E0AF0EB11CF201608171815E
:1014900080E090E0A3010E94C60CE82EE6180F77CA
:1014A000302E36FE0BC0332D3E7FE11650F434FE55
:1014B0000AC032FC08C0332D3E7E05C00E2D332DF0
:1014C00003C00E2D01C0012F34FF0CC0FE01EE0D34
:1014D000F11D8081803311F4397E08C032FF05C0D0
:1014E0000E5F04C0832F867809F00F5F33FD13C0B1
:1014F00030FF06C01E2D0F1518F41F0D101B0F2DE9
:101500000F1568F4B60180E290E03B8B0E946B0CF3
:101510000F5F3B89F5CF0F1510F4F01A01C0F12CC5
:1015200034FF12C0B60180E390E03B8B0E946B0C4D
:101530003B8932FF17C031FD03C088E790E002C04D
:1015400088E590E0B6010CC0832F867859F031FF12
:1015500002C08BE201C080E237FD8DE2B60190E06F
:101560000E946B0CE11638F4B60180E390E00E9413
:101570006B0C1150F7CFEA94F301EE0DF11D808151
:10158000B60190E00E946B0CE110F5CF14C0F4E0BE
:10159000FF1558F584E0F81A33FE1EC0211026C04E
:1015A00003FF2AC008E610E0F32DF0713F2EF8018A
:1015B0008491811124C0FF2009F4E5CCB60180E2BA
:1015C00090E00E946B0CFA94F6CFF6018681978129
:1015D00026C08FEF9FEF23C0B60180E290E00E940B
:1015E0006B0CFA94F110F8CFD9CFF12CB601822D03
:1015F00090E00E946B0CD4CF0CE610E0D5CF3110F8
:101600008052B60190E00E946B0C0F5F1F4FCFCF4E
:1016100023E02F1510F483E0BECFF12CC1CF6396E9
:10162000E2E10C94510BA1E21A2EAA1BBB1BFD0197
:101630000DC0AA1FBB1FEE1FFF1FA217B307E407B1
:10164000F50720F0A21BB30BE40BF50B661F771F09
:10165000881F991F1A9469F76095709580959095E9
:101660009B01AC01BD01CF0108952F923F924F9293
:101670005F926F927F928F929F92AF92BF92CF9222
:10168000DF92EF92FF920F931F93CF93DF93CDB72B
:10169000DEB7CA1BDB0B0FB6F894DEBF0FBECDBFA3
:1016A00009942A88398848885F846E847D848C8474
:1016B0009B84AA84B984C884DF80EE80FD800C817D
:1016C0001B81AA81B981CE0FD11D0FB6F894DEBF60
:1016D0000FBECDBFED010895EE0FFF1F0590F491F1
:1016E000E02D0994283008F027E03327DA01990F1C
:1016F000311D87FD916000966105710539F43260F6
:101700002E5F3D9330E32A95E1F708959F3F30F037
:1017100080387105610509F03C5F3C5F3D93913075
:1017200008F08068911DDF93CF931F930F93FF9272
:10173000EF92192F987F9695E92F96959695E90F38
:10174000FF27E653FF4F99273327EE24FF24A701F5
:10175000E70105900894079428F4360FE71EF81E59
:10176000491F511D660F771F881F991F0694A1F707
:101770000590079428F4E70EF81E491F561FC11D57
:10178000770F881F991F661F0694A1F7059007948D
:1017900028F4F80E491F561FC71FD11D880F991F27
:1017A000661F771F0694A1F70590079420F4490F50
:1017B000561FC71FD81F990F661F771F881F0694D3
:1017C000A9F784911095177041F0D695C795579554
:1017D0004795F794E7941A95C1F7E0E7F0E068942D
:1017E0001590159135916591959105907FE27395CE
:1017F000E118F10A430B560BC90BD009C0F7E10CF5
:10180000F11E431F561FC91FD01D7EF4703311F403
:101810008A95E6CFE894015030F0080F0AF40027CB
:10182000021708F4202F2395022F7A3328F079E34A
:101830007D932A95E9F710C07D932A9589F6069441
:1018400097956795379517951794E118F10A430B0B
:10185000560BC90BD00998F023957E9173957A3376
:1018600008F070E37C932013B8F77E9170617D934C
:1018700030F0839571E37D9370E32A95E1F71124AD
:10188000EF90FF900F911F91CF91DF91992787FDE6
:1018900090950895FC010590615070400110D8F7B3
:1018A000809590958E0F9F1F0895FB01DC010D9090
:1018B0000020E9F7119701900D920020E1F70895BB
:1018C000FC016150704001900110D8F7809590950F
:1018D0008E0F9F1F08950F931F93CF93DF93FB01EC
:1018E000238121FD03C08FEF9FEF28C022FF16C088
:1018F00046815781248135814217530744F4A081E2
:10190000B1819D012F5F3F4F318320838C932681CE
:1019100037812F5F3F4F3783268310C0EB01092F9C
:10192000182F0084F185E02D0995892BE1F68E8131
:101930009F8101969F838E83812F902FDF91CF917E
:101940001F910F910895AEE0B0E0E9EAFCE00C943D
:10195000430B0D891E8986E08C831A8309838FEFE0
:101960009FE79E838D83AE01475E5F4F6F89788DC1
:10197000CE0101960E9497072F813885F801E20F6A
:10198000F31F10822E96E4E00C945F0BFA01AA2755
:10199000283051F1203181F1E8946F936E7F6E5FB2
:1019A0007F4F8F4F9F4FAF4FB1E03ED0B4E03CD060
:1019B000670F781F891F9A1FA11D680F791F8A1F43
:1019C000911DA11D6A0F711D811D911DA11D20D0AA
:1019D00009F468943F912AE0269F11243019305D64
:1019E0003193DEF6CF010895462F4770405D419355
:1019F000B3E00FD0C9F7F6CF462F4F70405D4A33A2
:101A000018F0495D31FD4052419302D0A9F7EACF69
:101A1000B4E0A6959795879577956795BA95C9F798
:101A200000976105710508959B01AC010A2E06948B
:101A30005795479537952795BA95C9F7620F731F44
:0C1A4000841F951FA01D0895F894FFCF8F
:101A4C005B7B2253656E736F72223A25642C224F96
:101A5C00626A223A25302E31662C22416D62223A7E
:101A6C0025302E31662C2244697374616E636522B5
:101A7C003A5B25692C252E32665D2C227554696DD6
:101A8C0065223A256C757D007B2253656E736F72EF
:101A9C00223A25642C224F626A223A25302E316676
:101AAC002C22416D62223A25302E31662C2244695B
:101ABC007374616E6365223A5B25692C252E326640
:101ACC005D2C227554696D65223A256C757D5D001F
:041ADC000D0A0000EF
:00000001FF
