:100000000C94B6000C94DE000C94DE000C94DE0020
:100010000C94DE000C94DE000C94DE000C94DE00E8
:100020000C94DE000C94DE000C94DE000C94DE00D8
:100030000C94DE000C9413020C94EE010C94DE0080
:100040000C94DE000C94DE000C94DE000C94DE00B8
:100050000C94DE000C94DE000C94DE000C94DE00A8
:100060000C94DE000C94DE006E616E00696E66001A
:1000700000407A10F35A00A0724E18090010A5D45F
:10008000E80000E87648170000E40B54020000CABC
:100090009A3B000000E1F505000080969800000002
:1000A00040420F000000A086010000001027000061
:1000B0000000E803000000006400000000000A00E7
:1000C000000000000100000000002C76D888DC67EA
:1000D0004F0823DFC1DFAE59E1B1B796E5E3E45342
:1000E000C63AE651997696E8E6C28426EB898C9B5F
:1000F00062ED407C6FFCEFBC9C9F40F2BAA56FA5FF
:10010000F490055A2AF75C936B6CF9676DC11BFC80
:10011000E0E40D47FEF520E6B500D0ED902E03009B
:10012000943577050080841E080000204E0A0000E8
:1001300000C80C333333330F986E12831141EF8DA7
:100140002114893BE65516CFFEE6DB18D1844B38E7
:100150001BF77C1D901DA4BBE424203284725E2218
:100160008100C9F124ECA1E53D27620411241FBEE2
:10017000CFEFD8E0DEBFCDBF11E0A0E0B1E0E4E01A
:10018000FAE102C005900D92AE33B107D9F721E034
:10019000AEE3B1E001C01D92AE37B207E1F710E067
:1001A000C6EBD0E004C02197FE010E94480BC53B7E
:1001B000D107C9F70E9444040C94000D0C94000070
:1001C0001F93CF93DF93EC01162F188619860E9498
:1001D00077041A87DF91CF911F9108950F931F9392
:1001E000CF938C01C62FFC0182851086880F0E9458
:1001F0008004F8018085883059F091E0980F90874D
:10020000E80FF11DC083F8018085882309F44EC0F2
:10021000C0E0F801EC0FF11D80810E94AB04811158
:1002200045C0CF5FF8018085C81798F33FC0F8013B
:10023000918580859817B1F041E0490F4187E90F1A
:10024000F11D208130E08417D1F19E5FF801918784
:10025000E40FF11D4081342B981789F19F5FF8015D
:1002600091872DC020E030E02AC081E0F80180872E
:100270000E94BD04F8018083C08581E08C0F8087D7
:100280000E94BD04F801EC0FF11D8083F801C085C8
:1002900081E08C0F80870E94C804F801EC0FF11DEB
:1002A0008083F80111860E94A704C1CFF8018285DE
:1002B000880F81600E9480048823B9F2B8CFC901F9
:1002C000CF911F910F9108950E94EE00BC0180E034
:1002D00090E00E944F062AE037ED43EA5CE30E947B
:1002E000E20623E333E948E853E40E943A0508951F
:1002F00067E00E946401089566E00E946401089529
:1003000080E28AB91BB85D980895CF92DF92EF9290
:10031000FF920F931F93CF938C015D988AE08A958B
:10032000F1F700C05D9AEAE6EA95F1F700C05D9842
:100330004E9BFECFE4E8F0E0118210826081718173
:1003400080E090E00E944F066B017C01F89499B127
:10035000C92FC07496FDFBCF7894409184005091D2
:100360008500BA0180E090E00E944F06A701960147
:100370000E943A0520E030E040E05FE30E94E206A0
:100380006B017C0120E030E445EB56E40E94DD0681
:10039000181674F460E071E086E791E00E9425058C
:1003A0006BE371E086E791E00E942505C1E00DC096
:1003B00020E030E048E652E4C701B6010E94A705FC
:1003C000F80160837183828393838C2FCF911F9177
:1003D0000F91FF90EF90DF90CF9008951F920F92B2
:1003E0000FB60F9211248F939F93AF93BF93809179
:1003F0003E0190913F01A0914001B09141010196D1
:10040000A11DB11D80933E0190933F01A093400137
:10041000B0934101BF91AF919F918F910F900FBE0B
:100420000F901F9018951F920F920FB60F921124E4
:100430000F900FBE0F901F901895F89484B714BEBC
:1004400016BC109285001092840084B5826084BD31
:1004500089EF87BDEEE6F0E0808182608083EFE681
:10046000F0E080818160808385B5836085BDE1E8AF
:10047000F0E0808182608083789460E875E286E7AE
:1004800091E00E94D30482E491E00E9480010895EB
:100490002F923F924F925F926F927F928F929F9294
:1004A000AF92BF92CF92DF92EF92FF920F931F9382
:1004B000CF93DF93CDB7DEB7C359D1090FB6F89408
:1004C000DEBF0FBECDBF19821A821B821C82FE01C5
:1004D000359680E6DF011D928A95E9F782E491E086
:1004E0000E948501C0903E01D0903F01E090400104
:1004F000F09041018BE691E00E947801162F072FC2
:10050000B82EA92E8BE691E00E947C01562E472E34
:10051000382E292E80E691E00E947801EF966FAF89
:10052000EF97C158DF4F7883CF57D040C058DF4F87
:100530008883C058D040CF57DF4F9883C158D040F0
:1005400080E691E00E947C01CE57DF4F6883C2585D
:10055000D040CD57DF4F7883C358D040CC57DF4FC2
:100560008883C458D040CB57DF4F9883C558D040BC
:1005700085E591E00E947801CA57DF4F6883C6582D
:10058000D040C957DF4F7883C758D040C857DF4F96
:100590008883C858D040C757DF4F9883C958D04088
:1005A00085E591E00E947C01C657DF4F6883CA58F9
:1005B000D040C557DF4F7883CB58D040C457DF4F6A
:1005C0008883CC58D040C357DF4F9883CD58D04054
:1005D0008AE491E00E947801C257DF4F6883CE58C9
:1005E000D040C157DF4F7883CF58D040C057DF4F3E
:1005F0008883C059D040CF56DF4F9883C159D0402F
:100600008AE491E00E947C01CE56DF4F6883C25994
:10061000D040CD56DF4F7883C359D040782E692E15
:100620000F2EF2E48F2EF1E09F2EF02DF401608169
:10063000718182819381FF92EF92DF92CF920E942B
:1006400019067F936F932F923F924F925F92AF92D2
:10065000BF920F931F931F9281E08F930F2EFDE0A7
:10066000AF2EF1E0BF2EF02DBF92AF928E010B594D
:100670001F4F1F930F930E947F0CB801CE0101966C
:100680000E94310CD4016D917D918D919C91FF92CE
:10069000EF92DF92CF920E9419067F936F93CB5710
:1006A000DF4FB881C558D040BF93CC57DF4FE881AA
:1006B000C458D040EF93CD57DF4FF881C358D04096
:1006C000FF93CE57DF4F8881C258D0408F93CF57CA
:1006D000DF4F9881C158D0409F93C058DF4FA88109
:1006E000C058D040AF93C158DF4FB881CF57D040EA
:1006F000BF93EF96EFADEF97EF931F9282E08F934A
:1007000086E291E09F938F931F930F930E947F0C3B
:100710000FB6F894DEBF0FBECDBFB801CE01019673
:100720000E94310CD4016D917D918D919C91FF922D
:10073000EF92DF92CF920E9419067F936F93C35777
:10074000DF4FB881CD58D040BF93C457DF4FE88109
:10075000CC58D040EF93C557DF4FF881CB58D040ED
:10076000FF93C657DF4F8881CA58D0408F93C75731
:10077000DF4F9881C958D0409F93C857DF4FA88159
:10078000C858D040AF93C957DF4FB881C758D04041
:10079000BF93CA57DF4FE881C658D040EF931F92EE
:1007A00083E08F93BF92AF921F930F930E947F0CB1
:1007B000B801CE0101960E94310CD4016D917D915A
:1007C0008D919C91FF92EF92DF92CF920E94190639
:1007D0007F936F936F927F92CD56DF4FB881C3594D
:1007E000D040BF93CE56DF4FE881C259D040EF933F
:1007F000CF56DF4FF881C159D040FF93C057DF4F2C
:100800008881C059D0408F93C157DF4F9881CF580E
:10081000D0409F93C257DF4FA881CE58D040AF93AE
:100820001F9284E08F93BF92AF921F930F930E9409
:100830007F0C0FB6F894DEBF0FBECDBFB801CE015E
:1008400001960E94310CBE016F5F7F4F86E791E0F9
:100850000E942505CD56DF4F0FB6F894DEBF0FBEC0
:10086000CDBFDF91CF911F910F91FF90EF90DF905F
:10087000CF90BF90AF909F908F907F906F905F9040
:100880004F903F902F9008950E941D02C0903E010E
:10089000D0903F01E0904001F09041010E94480259
:1008A00080913E0190913F01A0914001B0914101A2
:1008B0008C199D09AE09BF098B3F9105A105B105B2
:1008C00078F3E4CF6AE58BE691E00E94E0006BE507
:1008D00080E691E00E94E0006CE585E591E00E94F1
:1008E000E0006DE58AE491E00E94E000089517B809
:1008F00080E388B91092B90088E48093B800089525
:1009000094EA9093BC00ECEBF0E090819923ECF733
:100910009091B900987F983011F09031A1F48093B4
:10092000BB0084E88093BC00ECEBF0E0808188237E
:10093000ECF79091B900987F983139F081E09034CC
:1009400029F480E0089581E0089580E0089584E925
:100950008093BC0008958093BB0084E88093BC0022
:10096000ECEBF0E080818823ECF79091B900987F60
:1009700081E0983209F480E0089584EC8093BC0013
:10098000ECEBF0E080818823ECF78091BB000895C8
:1009900084E88093BC00ECEBF0E080818823ECF7E6
:1009A0008091BB0008950F931F938B01770F220B4B
:1009B000330BD901C80180589B47A14EBF4F880F08
:1009C000991FAA1FBB1F880F991FAA1FBB1FBC011D
:1009D000CD01660F771F881F991F000F111F221F5F
:1009E000331F000F111F221F331FA9019801220F6F
:1009F000331F441F551F220F331F441F551F0E94D2
:100A0000EF0ADA01C9010197A109B109892F9A2FCB
:100A1000AB2FBB278093C50021502093C400E1EC8D
:100A2000F0E088E1808386E08093C2008081806866
:100A3000808378941F910F910895E0ECF0E080811D
:100A400085FFFDCF6093C60008950F931F93CF934A
:100A5000DF93EB016881662341F08C012196C80188
:100A60000E941D0569916111FACFDF91CF911F910D
:100A70000F9108955058BB27AA270E9452050C9445
:100A8000A3060E94950638F00E949C0620F039F4D7
:100A90009F3F19F426F40C9492060EF4E095E7FBC0
:100AA0000C948C06E92F0E94B40658F3BA1762071B
:100AB00073078407950720F079F4A6F50C94D60601
:100AC0000EF4E0950B2EBA2FA02D0B01B901900169
:100AD0000C01CA01A0011124FF27591B99F0593FAD
:100AE00050F4503E68F11A16F040A22F232F342FF5
:100AF0004427585FF3CF469537952795A795F04043
:100B00005395C9F77EF41F16BA0B620B730B840B57
:100B1000BAF09150A1F0FF0FBB1F661F771F881F0F
:100B2000C2F70EC0BA0F621F731F841F48F4879567
:100B300077956795B795F7959E3F08F0B0CF939559
:100B4000880F08F09927EE0F9795879508950E94D2
:100B5000BB050C94A3060E949C0658F00E949506C3
:100B600040F029F45F3F29F00C948C0651110C944D
:100B7000D7060C9492060E94B40668F39923B1F349
:100B8000552391F3951B550BBB27AA2762177307B3
:100B9000840738F09F5F5F4F220F331F441FAA1F47
:100BA000A9F335D00E2E3AF0E0E832D09150504003
:100BB000E695001CCAF72BD0FE2F29D0660F771FB1
:100BC000881FBB1F261737074807AB07B0E809F097
:100BD000BB0B802DBF01FF2793585F4F3AF09E3F1C
:100BE000510578F00C948C060C94D7065F3FE4F323
:100BF000983ED4F3869577956795B795F7959F5F5F
:100C0000C9F7880F911D9695879597F90895E1E0AA
:100C1000660F771F881FBB1F621773078407BA0709
:100C200020F0621B730B840BBA0BEE1F88F7E09564
:100C300008950E9420066894B1110C94D706089577
:100C40000E94BC0688F09F5798F0B92F9927B7519A
:100C5000B0F0E1F0660F771F881F991F1AF0BA9560
:100C6000C9F714C0B13091F00E94D606B1E00895E2
:100C70000C94D606672F782F8827B85F39F0B93FD4
:100C8000CCF3869577956795B395D9F73EF4909513
:100C90008095709561957F4F8F4F9F4F0895E89491
:100CA00009C097FB3EF490958095709561957F4FB4
:100CB0008F4F9F4F9923A9F0F92F96E9BB27939562
:100CC000F695879577956795B795F111F8CFFAF472
:100CD000BB0F11F460FF1BC06F5F7F4F8F4F9F4FA3
:100CE00016C0882311F096E911C0772321F09EE801
:100CF000872F762F05C0662371F096E8862F70E067
:100D000060E02AF09A95660F771F881FDAF7880F40
:100D10009695879597F9089597F99F6780E870E011
:100D200060E008959FEF80EC089500240A94161661
:100D3000170618060906089500240A9412161306C9
:100D4000140605060895092E0394000C11F4882357
:100D500052F0BB0F40F4BF2B11F460FF04C06F5F73
:100D60007F4F8F4F9F4F089557FD9058440F551F49
:100D700059F05F3F71F04795880F97FB991F61F01D
:100D80009F3F79F087950895121613061406551F94
:100D9000F2CF4695F1DF08C0161617061806991F00
:100DA000F1CF86957105610508940895E894BB27F5
:100DB00066277727CB0197F908950E944F0708F41B
:100DC0008FEF08950E94F5060C94A3060E949506E5
:100DD00038F00E949C0620F0952311F00C948C06AC
:100DE0000C94920611240C94D7060E94B40670F35A
:100DF000959FC1F3950F50E0551F629FF001729FC0
:100E0000BB27F00DB11D639FAA27F00DB11DAA1FCE
:100E1000649F6627B00DA11D661F829F2227B00D1B
:100E2000A11D621F739FB00DA11D621F839FA00DA6
:100E3000611D221F749F3327A00D611D231F849FF6
:100E4000600D211D822F762F6A2F11249F5750404D
:100E50009AF0F1F088234AF0EE0FFF1FBB1F661FC8
:100E6000771F881F91505040A9F79E3F510580F091
:100E70000C948C060C94D7065F3FE4F3983ED4F3B1
:100E8000869577956795B795F795E7959F5FC1F735
:100E9000FE2B880F911D9695879597F90895990FC8
:100EA0000008550FAA0BE0E8FEEF16161706E80734
:100EB000F907C0F012161306E407F50798F0621B55
:100EC000730B840B950B39F40A2661F0232B242B2A
:100ED000252B21F408950A2609F4A140A6958FEF49
:100EE000811D811D0895A3E1B0E0E9E7F7E00C94CE
:100EF000110B6C014B012A01FC01178216828381C0
:100F000081FF43C3AE014F5F5F4F3A01F60193810A
:100F1000F40193FD859193FF81914F01882309F49A
:100F200030C3853239F493FD859193FF81914F0150
:100F3000853239F4B60190E00E94470C5201250138
:100F4000E5CF10E0F12C20E02032A0F48B3269F0E4
:100F500030F4803259F0833269F420612CC08D3234
:100F600039F0803339F4216026C02260246023C028
:100F7000286021C027FD27C030ED380F3A3078F4C3
:100F800026FF06C0FAE01F9F300D1124132F13C057
:100F90004AE0F49E300D1124F32E20620CC08E32F4
:100FA00021F426FDEEC2206406C08C3611F42068C0
:100FB00002C0883641F4F40193FD859193FF81913D
:100FC0004F018111C1CF9BEB980F933018F4206132
:100FD000805E06C09BE9980F933008F071C12F7EA8
:100FE00026FF16E02F73322E853619F42064322E38
:100FF00008C0863621F4F22FF0683F2E02C011118E
:10100000115037FE07C01C3350F4EE24E394E10E78
:1010100027E00BC0183038F027E017E005C027E0C4
:101020004CE3E42E02C0212FE12C520144E0A40E37
:10103000B11CF20160817181828193810E2DA30127
:101040000E944E0B2C01098100FF02C003FF07C064
:1010500031FC08C032FE09C030E2232E07C02DE269
:10106000222E04C09BE2292E01C0212C802F8C70DF
:1010700019F0211068C2A8C237FE0FC0E40C04FFAB
:1010800004C08A81813309F4EA941E1474F5F8E0EF
:10109000FE1578F588E0E82E2CC036FC2AC0812F9A
:1010A00090E0841595059CF02CEF42162FEF520628
:1010B00074F0432D4068342E0AC0E2E0F0E0EC0FFB
:1010C000FD1FE10FF11D8081803319F411501111C2
:1010D000F4CF37FE0EC0EE24E394E10E812F90E0B2
:1010E000481659062CF4141904C0EE24E39401C0E8
:1010F00010E037FE06C01414150434F4C201019642
:1011000005C085E090E002C081E090E021100196EA
:10111000112331F0212F30E02F5F3F4F820F931FBB
:101120002F2D30E08217930714F4F81A01C0F12C28
:10113000832D897049F4FF2039F0B60180E290E0F8
:101140000E94470CFA94F7CF222029F0B601822D95
:1011500090E00E94470C33FC09C0FF2039F0B60133
:1011600080E390E00E94470CFA94F7CF37FE5AC014
:10117000942D852D57FE02C090E080E0292E382E58
:1011800020E030E0A2014E1951095D874C87A20191
:10119000421953095F874E87612F70E04427552716
:1011A000461B570B598B488B5FEF2516350649F4C4
:1011B000B6018EE290E02A8B3B8B0E94470C3B8964
:1011C0002A89421453046CF04C855D854215530501
:1011D00044F4EE85FF85E20FF31FE60DF71D8181D4
:1011E00001C080E351E0251A31082F5F3F4F488945
:1011F0005989241635064CF0B60190E02A8B3B8BBA
:101200000E94470C2A893B89CFCF2414350439F436
:101210009A81963318F4953311F404FF81E3B601F3
:1012200090E04BC08A81813309F00F7EB60190E0D7
:101230000E94470C111105C034FC18C085E690E0EF
:1012400017C0B6018EE290E00E94470C82E0EE24C7
:10125000E394E80EF301E80FF11D8081B60190E000
:101260000E94470C11508E2D91F7E6CF85E490E057
:10127000B6010E94470C57FC05C04114510439F4D3
:1012800004FF05C05194419451088DE201C08BE2E6
:10129000B60190E00E94470C80E39AE049165104A1
:1012A0002CF08F5F5AE0451A5108F7CFB60190E055
:1012B0000E94470CB601C201C0960E94470C57C15C
:1012C000833631F0833779F0833509F058C021C077
:1012D0005201E2E0AE0EB11CF2018081898301E08F
:1012E00010E0230114C05201F2E0AF0EB11CF20174
:1012F0004080518026FF03C0612F70E002C06FEF75
:101300007FEFC2012A8B0E943C0C8C012A892F7727
:1013100015C05201F2E0AF0EB11CF20140805180C5
:1013200026FF03C0612F70E002C06FEF7FEFC201A4
:101330002A8B0E94260C8C012A892068322E23FDDC
:101340001AC08F2D90E008171907A8F4B60180E2A3
:1013500090E00E94470CFA94F4CFF20137FC85919B
:1013600037FE81912F01B60190E00E94470CF110E9
:10137000FA94015011090115110579F7F8C0843666
:1013800011F0893659F5520127FF09C0F4E0AF0E7C
:10139000B11CF20160817181828193810AC0F2E007
:1013A000AF0EB11CF20160817181072E000C880B19
:1013B000990B2F76322E97FF09C0909580957095E6
:1013C00061957F4F8F4F9F4F2068322E2AE030E08B
:1013D000A3010E94A20CE82EE6183FC0022F853719
:1013E00021F40F7E2AE030E01DC0097F8F3691F096
:1013F00018F4883559F0C5C0803719F0883711F0D6
:10140000C0C0006104FF09C0046007C024FF08C019
:10141000066006C028E030E005C020E130E002C0F0
:1014200020E132E0520107FF09C0F4E0AF0EB11C29
:10143000F201608171818281938108C0F2E0AF0E78
:10144000B11CF2016081718180E090E0A3010E94F3
:10145000A20CE82EE6180F77302E36FE0BC0332D87
:101460003E7FE11650F434FE0AC032FC08C0332D32
:101470003E7E05C00E2D332D03C00E2D01C0012F61
:1014800034FF0CC0FE01EE0DF11D8081803311F49C
:10149000397E08C032FF05C00E5F04C0832F8678F6
:1014A00009F00F5F33FD13C030FF06C01E2D0F156E
:1014B00018F41F0D101B0F2D0F1568F4B60180E2F4
:1014C00090E03B8B0E94470C0F5F3B89F5CF0F15D7
:1014D00010F4F01A01C0F12C34FF12C0B60180E301
:1014E00090E03B8B0E94470C3B8932FF17C031FDD7
:1014F00003C088E790E002C088E590E0B6010CC028
:10150000832F867859F031FF02C08BE201C080E260
:1015100037FD8DE2B60190E00E94470CE11638F4E9
:10152000B60180E390E00E94470C1150F7CFEA9497
:10153000F301EE0DF11D8081B60190E00E94470C91
:10154000E110F5CF14C0F4E0FF1558F584E0F81A67
:1015500033FE1EC0211026C003FF2AC008E610E09B
:10156000F32DF0713F2EF8018491811124C0FF20EA
:1015700009F4E5CCB60180E290E00E94470CFA94B1
:10158000F6CFF6018681978126C08FEF9FEF23C0AB
:10159000B60180E290E00E94470CFA94F110F8CF77
:1015A000D9CFF12CB601822D90E00E94470CD4CF08
:1015B0000CE610E0D5CF31108052B60190E00E94C9
:1015C000470C0F5F1F4FCFCF23E02F1510F483E0A0
:1015D000BECFF12CC1CF6396E2E10C942D0BA1E2BA
:1015E0001A2EAA1BBB1BFD010DC0AA1FBB1FEE1F9D
:1015F000FF1FA217B307E407F50720F0A21BB30BE8
:10160000E40BF50B661F771F881F991F1A9469F763
:1016100060957095809590959B01AC01BD01CF01BF
:1016200008952F923F924F925F926F927F928F9286
:101630009F92AF92BF92CF92DF92EF92FF920F9361
:101640001F93CF93DF93CDB7DEB7CA1BDB0B0FB66B
:10165000F894DEBF0FBECDBF09942A883988488828
:101660005F846E847D848C849B84AA84B984C884BE
:10167000DF80EE80FD800C811B81AA81B981CE0FB5
:10168000D11D0FB6F894DEBF0FBECDBFED0108959A
:10169000EE0FFF1F0590F491E02D0994283008F01B
:1016A00027E03327DA01990F311D87FD91600096FD
:1016B0006105710539F432602E5F3D9330E32A9560
:1016C000E1F708959F3F30F080387105610509F01A
:1016D0003C5F3C5F3D93913008F08068911DDF9343
:1016E000CF931F930F93FF92EF92192F987F9695A8
:1016F000E92F96959695E90FFF27E653FF4F992717
:101700003327EE24FF24A701E701059008940794EE
:1017100028F4360FE71EF81E491F511D660F771F6C
:10172000881F991F0694A1F70590079428F4E70EE7
:10173000F81E491F561FC11D770F881F991F661F6E
:101740000694A1F70590079428F4F80E491F561F38
:10175000C71FD11D880F991F661F771F0694A1F719
:101760000590079420F4490F561FC71FD81F990FE3
:10177000661F771F881F0694A9F78491109517702C
:1017800041F0D695C79557954795F794E7941A95E4
:10179000C1F7E0E7F0E068941590159135916591F7
:1017A000959105907FE27395E118F10A430B560B72
:1017B000C90BD009C0F7E10CF11E431F561FC91F0A
:1017C000D01D7EF4703311F48A95E6CFE894015071
:1017D00030F0080F0AF40027021708F4202F239591
:1017E000022F7A3328F079E37D932A95E9F710C028
:1017F0007D932A9589F60694979567953795179561
:101800001794E118F10A430B560BC90BD00998F055
:1018100023957E9173957A3308F070E37C932013BF
:10182000B8F77E9170617D9330F0839571E37D937D
:1018300070E32A95E1F71124EF90FF900F911F912B
:10184000CF91DF91992787FD90950895FC01059030
:10185000615070400110D8F7809590958E0F9F1FB2
:101860000895FB01DC010D900020E9F7119701902C
:101870000D920020E1F70895FC0161507040019045
:101880000110D8F7809590958E0F9F1F08950F93A4
:101890001F93CF93DF93FB01238121FD03C08FEFC3
:1018A0009FEF28C022FF16C04681578124813581D1
:1018B0004217530744F4A081B1819D012F5F3F4F30
:1018C000318320838C93268137812F5F3F4F37836D
:1018D000268310C0EB01092F182F0084F185E02D1D
:1018E0000995892BE1F68E819F8101969F838E83D6
:1018F000812F902FDF91CF911F910F910895AEE02E
:10190000B0E0E5E8FCE00C941F0B0D891E8986E031
:101910008C831A8309838FEF9FE79E838D83AE01AB
:10192000475E5F4F6F89788DCE0101960E947307E5
:101930002F813885F801E20FF31F10822E96E4E024
:101940000C943B0BFA01AA27283051F1203181F188
:10195000E8946F936E7F6E5F7F4F8F4F9F4FAF4FB7
:10196000B1E03ED0B4E03CD0670F781F891F9A1FCA
:10197000A11D680F791F8A1F911DA11D6A0F711D7E
:10198000811D911DA11D20D009F468943F912AE08A
:10199000269F11243019305D3193DEF6CF01089572
:1019A000462F4770405D4193B3E00FD0C9F7F6CFA3
:1019B000462F4F70405D4A3318F0495D31FD40526B
:1019C000419302D0A9F7EACFB4E0A6959795879501
:1019D00077956795BA95C9F70097610571050895E0
:1019E0009B01AC010A2E069457954795379527958C
:1019F000BA95C9F7620F731F841F951FA01D089524
:041A0000F894FFCF88
:101A04004F7574206F662072616E6765005425649B
:101A14002C25302E31662C25302E31662C25692C50
:101A2400256C750D0A005425642C252E31662C2551
:0E1A3400302E31662C25692C256C750D0A00AC
:00000001FF
