S01100004D4C58204D756C74692E73726563F7
S11300000C94B7000C94DF000C94DF000C94DF0018
S11300100C94DF000C94DF000C94DF000C94DF00E0
S11300200C94DF000C94DF000C94DF000C94DF00D0
S11300300C94DF000C941D020C94F8010C94DF0066
S11300400C94DF000C94DF000C94DF000C94DF00B0
S11300500C94DF000C94DF000C94DF000C94DF00A0
S11300600C94DF000C94DF006E616E00696E660014
S113007000407A10F35A00A0724E18090010A5D45B
S1130080E80000E87648170000E40B54020000CAB8
S11300909A3B000000E1F5050000809698000000FE
S11300A040420F000000A08601000000102700005D
S11300B00000E803000000006400000000000A00E3
S11300C0000000000100000000002C76D888DC67E6
S11300D04F0823DFC1DFAE59E1B1B796E5E3E4533E
S11300E0C63AE651997696E8E6C28426EB898C9B5B
S11300F062ED407C6FFCEFBC9C9F40F2BAA56FA5FB
S1130100F490055A2AF75C936B6CF9676DC11BFC7C
S1130110E0E40D47FEF520E6B500D0ED902E030097
S1130120943577050080841E080000204E0A0000E4
S113013000C80C333333330F986E12831141EF8DA3
S11301402114893BE65516CFFEE6DB18D1844B38E3
S11301501BF77C1D901DA4BBE424203284725E2214
S11301608100C9F124ECA1E53D271C03FD03112402
S11301701FBECFEFD8E0DEBFCDBF11E0A0E0B1E0FD
S1130180E8E9F7E102C005900D92AC34B107D9F764
S113019021E0ACE4B1E001C01D92AC38B207E1F754
S11301A010E0C7EBD0E004C02197FE010E94120AC0
S11301B0C53BD107C9F70E94FE020C94CA0B0C94EC
S11301C000001F93CF93DF93EC01162F1886198636
S11301D00E942B031A87DF91CF911F910895EF920C
S11301E0FF920F931F93CF938C01C62F7A01FC01CA
S11301F082851086880F0E943403F8018085883038
S113020059F091E0980F9087E80FF11DC083F80131
S11302108085882309F44EC0C0E0F801EC0FF11D7D
S113022080810E945F03811145C0CF5FF801808502
S1130230C81798F33FC0F801818590858917B1F0FC
S113024041E0480F4187E80FF11D208130E0941709
S1130250D1F18E5FF8018187E40FF11D4081342BC9
S1130260891789F18F5FF80181872DC020E030E084
S11302702AC081E0F80180870E947103F80180831D
S1130280C08581E08C0F80870E947103F801EC0F18
S1130290F11D8083F801C08581E08C0F80870E9466
S11302A07C03F801EC0FF11D8083F80111860E9494
S11302B05B03C1CFF8018285880F81600E943403FB
S11302C08823B9F2B8CFF7013183208380E0CF913E
S11302D01F910F91FF90EF900895CF93DF9300D07B
S11302E0CDB7DEB7AE014F5F5F4F0E94EF0069816B
S11302F07A8180E090E00E9419052AE037ED43EA14
S11303005CE30E94D00523E333E948E853E40E9408
S113031004040F900F90DF91CF91089567E00E943D
S11303206D01089566E00E946D01089580E28AB926
S11303301BB85D980895CF92DF92EF92FF920F93CE
S11303401F93CF938C015D988AE08A95F1F700C0E2
S11303505D9AEAE6EA95F1F700C05D984E9BFECF00
S1130360E4E8F0E0118210826081718180E090E025
S11303700E9419056B017C01F89499B1C92FC074CE
S113038096FDFBCF78944091840050918500BA018A
S113039080E090E00E941905A70196010E940404E0
S11303A020E030E040E05FE30E94D0056B017C0177
S11303B020E030E445EB56E40E94CB05181674F0B7
S11303C020E030E048E652E4C701B6010E9471041F
S11303D0F801608371838283938301C0C1E08C2F11
S11303E0CF911F910F91FF90EF90DF90CF900895E0
S11303F01F920F920FB60F9211248F939F93AF9376
S1130400BF9380914C0190914D01A0914E01B09108
S11304104F010196A11DB11D80934C0190934D0194
S1130420A0934E01B0934F01BF91AF919F918F91D3
S11304300F900FBE0F901F9018951F920F920FB63A
S11304400F9211240F900FBE0F901F901895F894DF
S113045016BC109285001092840084B5826084BD1D
S113046089EF87BDEEE6F0E0808182608083EFE66D
S1130470F0E080818160808385B5836085BDE1E89B
S1130480F0E0808182608083789460E875E28AE796
S113049091E00E9487038AE791E00E94D1038CE5F2
S11304A091E00E94960108952F923F924F925F929D
S11304B06F927F928F929F92AF92BF92CF92DF9270
S11304C0EF92FF920F931F93CF93DF93CDB7DEB7D5
S11304D0C157D2400FB6F894DEBF0FBECDBF19820C
S11304E01A821B821C82FE01359680EF91E0DF01A7
S11304F09C011D9221503040E1F78CE591E00E946F
S11305009B010F2EF4E6EF2EF1E0FF2EF02D00E01C
S113051010E00F2EF0E0AF2EF1E0BF2EF02D6E01B3
S11305203BE0C31A3EEFD30AC7010E948E01962E08
S1130530872E782E692EC7010E949201562E472ECF
S1130540382E292EACE5B1E06D917D918D919C9171
S11305500F5F1F4F1F921F921F921F921F921F9295
S11305601F921F920E94E3047F936F932F923F92F6
S11305704F925F926F927F928F929F921F930F93ED
S1130580BF92AF92DF92CF920E94490BB601CE0187
S113059001960E94FB0ABBE0EB0EF11C0FB6F89427
S11305A0DEBF0FBECDBF0230110509F0BDCFBE01C5
S11305B06F5F7F4F8AE791E00E94E10369E471E095
S11305C08AE791E00E94E103CF58DD4F0FB6F8941B
S11305D0DEBF0FBECDBFDF91CF911F910F91FF9072
S11305E0EF90DF90CF90BF90AF909F908F907F90CF
S11305F06F905F904F903F902F9008950E94270234
S1130600C0904C01D0904D01E0904E01F0904F010C
S11306100E94540280914C0190914D01A0914E0191
S1130620B0914F018C199D09AE09BF098B3F91050B
S1130630A105B10578F3E4CF6AE584E691E00E9470
S1130640E1006BE58FE691E00E94E10080E591E036
S11306500E94F603089517B880E388B91092B90090
S113066088E48093B800089594EA9093BC00ECEB7E
S1130670F0E090819923ECF79091B900987F98303D
S113068011F09031A1F48093BB0084E88093BC0006
S1130690ECEBF0E080818823ECF79091B900987F2F
S11306A0983139F081E0903429F480E0089581E0B4
S11306B0089580E0089584E98093BC0008958093B0
S11306C0BB0084E88093BC00ECEBF0E080818823DD
S11306D0ECF79091B900987F81E0983209F480E0BA
S11306E0089584EC8093BC00ECEBF0E080818823D7
S11306F0ECF78091BB00089584E88093BC00ECEB98
S1130700F0E080818823ECF78091BB0008950F937B
S11307101F938B01770F220B330BD901C80180582B
S11307209B47A14EBF4F880F991FAA1FBB1F880F5D
S1130730991FAA1FBB1FBC01CD01660F771F881F1D
S1130740991F000F111F221F331F000F111F221F9B
S1130750331FA9019801220F331F441F551F220F75
S1130760331F441F551F0E94B909DA01C9010197BB
S1130770A109B109892F9A2FAB2FBB278093C500FC
S113078021502093C400E1ECF0E088E1808386E00E
S11307908093C20080818068808378941F910F9138
S11307A00895E0ECF0E080818823ECF78091C600A6
S11307B00895E0ECF0E0808185FFFDCF6093C600F2
S11307C008950F931F93CF93DF93EB016881662302
S11307D041F08C012196C8010E94D90369916111ED
S11307E0FACFDF91CF911F910F910895FC0189E217
S11307F081831382128214820895E2E8F1E0108664
S113080011860E942B0308955058BB27AA270E94E3
S11308101C040C9491050E94830538F00E948A05FB
S113082020F039F49F3F19F426F40C9480050EF45B
S1130830E095E7FB0C947A05E92F0E94A20558F392
S1130840BA17620773078407950720F079F4A6F5B1
S11308500C94C4050EF4E0950B2EBA2FA02D0B01B9
S1130860B90190010C01CA01A0011124FF27591BF1
S113087099F0593F50F4503E68F11A16F040A22FF7
S1130880232F342F4427585FF3CF46953795279568
S1130890A795F0405395C9F77EF41F16BA0B620B67
S11308A0730B840BBAF09150A1F0FF0FBB1F661FAE
S11308B0771F881FC2F70EC0BA0F621F731F841FF1
S11308C048F4879577956795B795F7959E3F08F017
S11308D0B0CF9395880F08F09927EE0F97958795D9
S11308E008950E9485040C9491050E948A0558F08D
S11308F00E94830540F029F45F3F29F00C947A05A7
S113090051110C94C5050C9480050E94A20568F34E
S11309109923B1F3552391F3951B550BBB27AA27B4
S113092062177307840738F09F5F5F4F220F331FEE
S1130930441FAA1FA9F335D00E2E3AF0E0E832D0B6
S113094091505040E695001CCAF72BD0FE2F29D0B9
S1130950660F771F881FBB1F261737074807AB078B
S1130960B0E809F0BB0B802DBF01FF2793585F4F00
S11309703AF09E3F510578F00C947A050C94C50525
S11309805F3FE4F3983ED4F3869577956795B795E2
S1130990F7959F5FC9F7880F911D9695879597F9ED
S11309A00895E1E0660F771F881FBB1F6217730766
S11309B08407BA0720F0621B730B840BBA0BEE1F7B
S11309C088F7E09508950E94EA046894B1110C94A4
S11309D0C50508950E94AA0588F09F5798F0B92F7D
S11309E09927B751B0F0E1F0660F771F881F991F60
S11309F01AF0BA95C9F714C0B13091F00E94C40539
S1130A00B1E008950C94C405672F782F8827B85F48
S1130A1039F0B93FCCF3869577956795B395D9F7B7
S1130A203EF490958095709561957F4F8F4F9F4FC1
S1130A300895E89409C097FB3EF4909580957095CD
S1130A4061957F4F8F4F9F4F9923A9F0F92F96E916
S1130A50BB279395F695879577956795B795F1118B
S1130A60F8CFFAF4BB0F11F460FF1BC06F5F7F4F28
S1130A708F4F9F4F16C0882311F096E911C077233A
S1130A8021F09EE8872F762F05C0662371F096E843
S1130A90862F70E060E02AF09A95660F771F881F12
S1130AA0DAF7880F9695879597F90895990F0008B6
S1130AB0550FAA0BE0E8FEEF16161706E807F9072C
S1130AC0C0F012161306E407F50798F0621B730BC7
S1130AD0840B950B39F40A2661F0232B242B252B48
S1130AE021F408950A2609F4A140A6958FEF811DEB
S1130AF0811D089597F99F6780E870E060E008958C
S1130B009FEF80EC089500240A9416161706180621
S1130B100906089500240A941216130614060506FD
S1130B200895092E0394000C11F4882352F0BB0F8E
S1130B3040F4BF2B11F460FF04C06F5F7F4F8F4FF1
S1130B409F4F089557FD9058440F551F59F05F3F2C
S1130B5071F04795880F97FB991F61F09F3F79F0DB
S1130B6087950895121613061406551FF2CF46955D
S1130B70F1DF08C0161617061806991FF1CF8695DF
S1130B807105610508940895E894BB2766277727C3
S1130B90CB0197F908950E94560508F48FEF089544
S1130BA00E94E3050C9491050E94830538F00E948D
S1130BB08A0520F0952311F00C947A050C94800595
S1130BC011240C94C5050E94A20570F3959FC1F3EE
S1130BD0950F50E0551F629FF001729FBB27F00DE7
S1130BE0B11D639FAA27F00DB11DAA1F649F66273C
S1130BF0B00DA11D661F829F2227B00DA11D621F8B
S1130C00739FB00DA11D621F839FA00D611D221F44
S1130C10749F3327A00D611D231F849F600D211D28
S1130C20822F762F6A2F11249F5750409AF0F1F0AB
S1130C3088234AF0EE0FFF1FBB1F661F771F881F14
S1130C4091505040A9F79E3F510580F00C947A05CD
S1130C500C94C5055F3FE4F3983ED4F386957795ED
S1130C606795B795F795E7959F5FC1F7FE2B880FBA
S1130C70911D9695879597F90895A3E1B0E0E3E473
S1130C80F6E00C94DB096C014B012A01FC0117828C
S1130C901682838181FF43C3AE014F5F5F4F3A01E8
S1130CA0F6019381F40193FD859193FF81914F01A6
S1130CB0882309F430C3853239F493FD859193FF79
S1130CC081914F01853239F4B60190E00E94110BF5
S1130CD052012501E5CF10E0F12C20E02032A0F4F0
S1130CE08B3269F030F4803259F0833269F4206138
S1130CF02CC08D3239F0803339F4216026C0226053
S1130D00246023C0286021C027FD27C030ED380FA0
S1130D103A3078F426FF06C0FAE01F9F300D112404
S1130D20132F13C04AE0F49E300D1124F32E2062D9
S1130D300CC08E3221F426FDEEC2206406C08C362F
S1130D4011F4206802C0883641F4F40193FD8591C2
S1130D5093FF81914F018111C1CF9BEB980F933089
S1130D6018F42061805E06C09BE9980F933008F068
S1130D7071C12F7E26FF16E02F73322E853619F4AB
S1130D802064322E08C0863621F4F22FF0683F2EFC
S1130D9002C01111115037FE07C01C3350F4EE2469
S1130DA0E394E10E27E00BC0183038F027E017E099
S1130DB005C027E04CE3E42E02C0212FE12C5201B0
S1130DC044E0A40EB11CF20160817181828193819F
S1130DD00E2DA3010E94180A2C01098100FF02C0F4
S1130DE003FF07C031FC08C032FE09C030E2232EE5
S1130DF007C02DE2222E04C09BE2292E01C0212C23
S1130E00802F8C7019F0211068C2A8C237FE0FC061
S1130E10E40C04FF04C08A81813309F4EA941E14AB
S1130E2074F5F8E0FE1578F588E0E82E2CC036FC61
S1130E302AC0812F90E0841595059CF02CEF421672
S1130E402FEF520674F0432D4068342E0AC0E2E0BE
S1130E50F0E0EC0FFD1FE10FF11D8081803319F4E8
S1130E6011501111F4CF37FE0EC0EE24E394E10EBD
S1130E70812F90E0481659062CF4141904C0EE246E
S1130E80E39401C010E037FE06C01414150434F4D2
S1130E90C201019605C085E090E002C081E090E0C7
S1130EA021100196112331F0212F30E02F5F3F4FA5
S1130EB0820F931F2F2D30E08217930714F4F81A32
S1130EC001C0F12C832D897049F4FF2039F0B6015B
S1130ED080E290E00E94110BFA94F7CF222029F0CF
S1130EE0B601822D90E00E94110B33FC09C0FF2053
S1130EF039F0B60180E390E00E94110BFA94F7CF29
S1130F0037FE5AC0942D852D57FE02C090E080E034
S1130F10292E382E20E030E0A2014E1951095D87B8
S1130F204C87A201421953095F874E87612F70E0F5
S1130F3044275527461B570B598B488B5FEF2516C3
S1130F40350649F4B6018EE290E02A8B3B8B0E9471
S1130F50110B3B892A89421453046CF04C855D853E
S1130F604215530544F4EE85FF85E20FF31FE60DA9
S1130F70F71D818101C080E351E0251A31082F5FFC
S1130F803F4F48895989241635064CF0B60190E044
S1130F902A8B3B8B0E94110B2A893B89CFCF2414C7
S1130FA0350439F49A81963318F4953311F404FF17
S1130FB081E3B60190E04BC08A81813309F00F7E52
S1130FC0B60190E00E94110B111105C034FC18C049
S1130FD085E690E017C0B6018EE290E00E94110B06
S1130FE082E0EE24E394E80EF301E80FF11D808122
S1130FF0B60190E00E94110B11508E2D91F7E6CFAF
S113100085E490E0B6010E94110B57FC05C0411421
S1131010510439F404FF05C05194419451088DE200
S113102001C08BE2B60190E00E94110B80E39AE0CC
S1131030491651042CF08F5F5AE0451A5108F7CF36
S1131040B60190E00E94110BB601C201C0960E9445
S1131050110B57C1833631F0833779F0833509F0AA
S113106058C021C05201E2E0AE0EB11CF2018081F1
S1131070898301E010E0230114C05201F2E0AF0EB5
S1131080B11CF2014080518026FF03C0612F70E043
S113109002C06FEF7FEFC2012A8B0E94060B8C0106
S11310A02A892F7715C05201F2E0AF0EB11CF2016C
S11310B04080518026FF03C0612F70E002C06FEFB3
S11310C07FEFC2012A8B0E94F00A8C012A892068D2
S11310D0322E23FD1AC08F2D90E008171907A8F4AB
S11310E0B60180E290E00E94110BFA94F4CFF20171
S11310F037FC859137FE81912F01B60190E00E9463
S1131100110BF110FA94015011090115110579F729
S1131110F8C0843611F0893659F5520127FF09C009
S1131120F4E0AF0EB11CF201608171818281938180
S11311300AC0F2E0AF0EB11CF20160817181072E8A
S1131140000C880B990B2F76322E97FF09C09095CF
S11311508095709561957F4F8F4F9F4F2068322EF9
S11311602AE030E0A3010E946C0BE82EE6183FC091
S1131170022F853721F40F7E2AE030E01DC0097F5D
S11311808F3691F018F4883559F0C5C0803719F0BE
S1131190883711F0C0C0006104FF09C0046007C0B3
S11311A024FF08C0066006C028E030E005C020E146
S11311B030E002C020E132E0520107FF09C0F4E050
S11311C0AF0EB11CF201608171818281938108C0EC
S11311D0F2E0AF0EB11CF2016081718180E090E019
S11311E0A3010E946C0BE82EE6180F77302E36FE12
S11311F00BC0332D3E7FE11650F434FE0AC032FC9E
S113120008C0332D3E7E05C00E2D332D03C00E2D98
S113121001C0012F34FF0CC0FE01EE0DF11D8081D1
S1131220803311F4397E08C032FF05C00E5F04C05C
S1131230832F867809F00F5F33FD13C030FF06C09B
S11312401E2D0F1518F41F0D101B0F2D0F1568F40C
S1131250B60180E290E03B8B0E94110B0F5F3B894B
S1131260F5CF0F1510F4F01A01C0F12C34FF12C0A1
S1131270B60180E390E03B8B0E94110B3B8932FF67
S113128017C031FD03C088E790E002C088E590E014
S1131290B6010CC0832F867859F031FF02C08BE26F
S11312A001C080E237FD8DE2B60190E00E94110B8F
S11312B0E11638F4B60180E390E00E94110B11505E
S11312C0F7CFEA94F301EE0DF11D8081B60190E0B1
S11312D00E94110BE110F5CF14C0F4E0FF1558F58E
S11312E084E0F81A33FE1EC0211026C003FF2AC072
S11312F008E610E0F32DF0713F2EF801849181117E
S113130024C0FF2009F4E5CCB60180E290E00E94FD
S1131310110BFA94F6CFF6018681978126C08FEFE0
S11313209FEF23C0B60180E290E00E94110BFA9473
S1131330F110F8CFD9CFF12CB601822D90E00E94A4
S1131340110BD4CF0CE610E0D5CF31108052B6018A
S113135090E00E94110B0F5F1F4FCFCF23E02F159A
S113136010F483E0BECFF12CC1CF6396E2E10C947C
S1131370F709A1E21A2EAA1BBB1BFD010DC0AA1F6F
S1131380BB1FEE1FFF1FA217B307E407F50720F0EA
S1131390A21BB30BE40BF50B661F771F881F991F65
S11313A01A9469F760957095809590959B01AC01AE
S11313B0BD01CF0108952F923F924F925F926F9299
S11313C07F928F929F92AF92BF92CF92DF92EF92D1
S11313D0FF920F931F93CF93DF93CDB7DEB7CA1B52
S11313E0DB0B0FB6F894DEBF0FBECDBF09942A887D
S11313F0398848885F846E847D848C849B84AA8425
S1131400B984C884DF80EE80FD800C811B81AA81B1
S1131410B981CE0FD11D0FB6F894DEBF0FBECDBF7C
S1131420ED010895EE0FFF1F0590F491E02D09944E
S1131430283008F027E03327DA01990F311D87FDA2
S1131440916000966105710539F432602E5F3D9319
S113145030E32A95E1F708959F3F30F08038710515
S1131460610509F03C5F3C5F3D93913008F0806872
S1131470911DDF93CF931F930F93FF92EF92192F38
S1131480987F9695E92F96959695E90FFF27E65351
S1131490FF4F99273327EE24FF24A701E701059086
S11314A00894079428F4360FE71EF81E491F511DAF
S11314B0660F771F881F991F0694A1F7059007945C
S11314C028F4E70EF81E491F561FC11D770F881F09
S11314D0991F661F0694A1F70590079428F4F80E47
S11314E0491F561FC71FD11D880F991F661F771FDD
S11314F00694A1F70590079420F4490F561FC71FBF
S1131500D81F990F661F771F881F0694A9F7849127
S11315101095177041F0D695C79557954795F79450
S1131520E7941A95C1F7E0E7F0E0689415901591F7
S113153035916591959105907FE27395E118F10AD3
S1131540430B560BC90BD009C0F7E10CF11E431F26
S1131550561FC91FD01D7EF4703311F48A95E6CF4F
S1131560E894015030F0080F0AF40027021708F439
S1131570202F2395022F7A3328F079E37D932A953F
S1131580E9F710C07D932A9589F606949795679597
S1131590379517951794E118F10A430B560BC90BAD
S11315A0D00998F023957E9173957A3308F070E30F
S11315B07C932013B8F77E9170617D9330F083950E
S11315C071E37D9370E32A95E1F71124EF90FF9086
S11315D00F911F91CF91DF91992787FD90950895E1
S11315E0FC010590615070400110D8F780959095EA
S11315F08E0F9F1F0895FB01DC010D900020E9F779
S1131600119701900D920020E1F70895FC016150BB
S1131610704001900110D8F7809590958E0F9F1F10
S113162008950F931F93CF93DF93FB01238121FD33
S113163003C08FEF9FEF28C022FF16C04681578159
S1131640248135814217530744F4A081B1819D015F
S11316502F5F3F4F318320838C93268137812F5F07
S11316603F4F3783268310C0EB01092F182F0084C6
S1131670F185E02D0995892BE1F68E819F810196F4
S11316809F838E83812F902FDF91CF911F910F9194
S11316900895AEE0B0E0EFE4FBE00C94E9090D89B5
S11316A01E8986E08C831A8309838FEF9FE79E83CC
S11316B08D83AE01475E5F4F6F89788DCE010196B1
S11316C00E943D062F813885F801E20FF31F108236
S11316D02E96E4E00C94050AFA01AA27283051F169
S11316E0203181F1E8946F936E7F6E5F7F4F8F4F4F
S11316F09F4FAF4FB1E03ED0B4E03CD0670F781FAE
S1131700891F9A1FA11D680F791F8A1F911DA11D92
S11317106A0F711D811D911DA11D20D009F46894CB
S11317203F912AE0269F11243019305D3193DEF673
S1131730CF010895462F4770405D4193B3E00FD029
S1131740C9F7F6CF462F4F70405D4A3318F0495D14
S113175031FD4052419302D0A9F7EACFB4E0A695F7
S11317609795879577956795BA95C9F70097610519
S1131770710508959B01AC010A2E0694579547956F
S113178037952795BA95C9F7620F731F841F951F64
S10B1790A01D0895F894FFCF99
S11317985B7B2253656E736F72223A25642C224F49
S11317A8626A223A25302E31662C22416D62223A31
S11317B825302E31662C2244697374616E63652268
S11317C83A5B25692C25302E31665D2C22755469C7
S10F17D86D65223A256C757D000D0A0039
S9030000FC
