S01100004D4C58204D756C74692E73726563F7
S11300000C94B6000C94DE000C94DE000C94DE001C
S11300100C94DE000C94DE000C94DE000C94DE00E4
S11300200C94DE000C94DE000C94DE000C94DE00D4
S11300300C94DE000C94DE000C9485010C94DE001C
S11300400C94DE000C94DE000C94DE000C94DE00B4
S11300500C94DE000C94DE000C94DE000C94DE00A4
S11300600C94DE000C94DE006E616E00696E660016
S113007000407A10F35A00A0724E18090010A5D45B
S1130080E80000E87648170000E40B54020000CAB8
S11300909A3B000000E1F5050000809698000000FE
S11300A040420F000000A08601000000102700005D
S11300B00000E803000000006400000000000A00E3
S11300C0000000000100000000002C76D888DC67E6
S11300D04F0823DFC1DFAE59E1B1B796E5E3E4533E
S11300E0C63AE651997696E8E6C28426EB898C9B5B
S11300F062ED407C6FFCEFBC9C9F40F2BAA56FA5FB
S1130100F490055A2AF75C936B6CF9676DC11BFC7C
S1130110E0E40D47FEF520E6B500D0ED902E030097
S1130120943577050080841E080000204E0A0000E4
S113013000C80C333333330F986E12831141EF8DA3
S11301402114893BE65516CFFEE6DB18D1844B38E3
S11301501BF77C1D901DA4BBE424203284725E2214
S11301608100C9F124ECA1E53D27CA0211241FBE78
S1130170CFEFD8E0DEBFCDBF11E0A0E0B1E0EEE705
S1130180F5E102C005900D92A233B107D9F721E041
S1130190A2E3B1E001C01D92A736B207E1F710E077
S11301A0C6EBD0E004C02197FE010E941009C53BB4
S11301B0D107C9F70E94AC010C94BD0A0C9400004D
S11301C01F93CF93DF93EC01162F188619860E9494
S11301D0DA021A87DF91CF911F9108950F931F932D
S11301E0CF938C01C62FFC0182851086880F0E9454
S11301F0E302F8018085883059F091E0980F9087E8
S1130200E80FF11DC083F8018085882309F44EC0EE
S1130210C0E0F801EC0FF11D80810E940E038111F2
S113022045C0CF5FF8018085C81798F33FC0F80137
S1130230918580859817B1F041E0490F4187E90F16
S1130240F11D208130E08417D1F19E5FF801918780
S1130250E40FF11D4081342B981789F19F5FF80159
S113026091872DC020E030E02AC081E0F80180872A
S11302700E942003F8018083C08581E08C0F808771
S11302800E942003F801EC0FF11D8083F801C08562
S113029081E08C0F80870E942B03F801EC0FF11D85
S11302A08083F80111860E940A03C1CFF801828578
S11302B0880F81600E94E3028823B9F2B8CFC90194
S11302C0CF911F910F9108950E94EE00BC0180E030
S11302D090E00E9440042AE037ED43EA5CE30E9488
S11302E0CE0423E333E948E853E40E949D030895D0
S11302F067E00E946401089566E00E946401089525
S113030080E28AB91BB85D9808951F920F920FB6C8
S11303100F9211248F939F93AF93BF93F89480917E
S1130320320190913301A0913401B09135010196CD
S1130330A11DB11D8093320190933301A093340128
S1130340B09335017894BF91AF919F918F910F90A5
S11303500FBE0F901F901895CF93DF93CDB7DEB7E4
S113036060970FB6F894DEBF0FBECDBF16BC1092D7
S11303708500109284008DB383608DBBE9E6F0E0C4
S113038080818F60808384B5826084BDE0E8F0E082
S113039080818860808389EF87BD8FEF8093890097
S11303A080938800EEE6F0E0808182608083EFE64F
S11303B0F0E080818260808385B5836085BDE1E85B
S11303C0F0E0808182608083789460E875E28FE554
S11303D091E00E94360386E391E00E94800160E090
S11303E071E08FE591E00E9488036EE271E08FE591
S11303F091E00E9488030F2EFCE1AF2EF1E0BF2EA6
S1130400F02D8E010F5F1F4FC0903201D090330149
S1130410E0903401F09035016DE071E08FE591E0FA
S11304200E9488036EE271E08FE591E00E948803E8
S113043084E591E00E947801962E872E782E692E0D
S113044084E591E00E947C01562E472E382E292EF9
S1130450E6E3F1E060817181828193810E940A0464
S11304607F936F932F923F924F925F926F927F92FE
S11304708F929F921F92F1E0FF93BF92AF921F93CE
S11304800F930E943C0AB8018FE591E00E94880313
S113049089E491E00E947801962E872E782E692EA9
S11304A089E491E00E947C01562E472E382E292E95
S11304B0E6E3F1E060817181828193810E940A0404
S11304C07F936F932F923F924F925F926F927F929E
S11304D08F929F921F92F2E0FF93BF92AF921F936D
S11304E00F930E943C0A0FB6F894DEBF0FBECDBF37
S11304F0B8018FE591E00E9488038EE391E00E94A9
S11305007801962E872E782E692E8EE391E00E9434
S11305107C01562E472E382E292EE6E3F1E0608129
S11305207181828193810E940A047F936F932F9239
S11305303F924F925F926F927F928F929F921F92FF
S1130540F3E0FF93BF92AF921F930F930E943C0A74
S1130550B8018FE591E00E9488036EE271E08FE5B7
S113056091E00E9488030FB6F894DEBF0FBECDBFA2
S11305708091320190913301A0913401B091350101
S11305808C199D09AE09BF098B3F9105A105B105E1
S113059078F33ACF6AE584E591E00E94E0006BE5E8
S11305A089E491E00E94E0006CE58EE391E00E9412
S11305B0E000089517B880E388B91092B90088E480
S11305C08093B800089594EA9093BC00ECEBF0E0BB
S11305D090819923ECF79091B900987F983011F0AD
S11305E09031A1F48093BB0084E88093BC00ECEBD1
S11305F0F0E080818823ECF79091B900987F9831DE
S113060039F081E0903429F480E0089581E0089580
S113061080E0089584E98093BC0008958093BB0032
S113062084E88093BC00ECEBF0E080818823ECF755
S11306309091B900987F81E0983209F480E00895A0
S113064084EC8093BC00ECEBF0E080818823ECF731
S11306508091BB00089584E88093BC00ECEBF0E04B
S113066080818823ECF78091BB0008950F931F933A
S11306708B01770F220B330BD901C80180589B479C
S1130680A14EBF4F880F991FAA1FBB1F880F991F28
S1130690AA1FBB1FBC01CD01660F771F881F991FBE
S11306A0000F111F221F331F000F111F221F331FA2
S11306B0A9019801220F331F441F551F220F331F16
S11306C0441F551F0E94B708DA01C9010197A10907
S11306D0B109892F9A2FAB2FBB278093C5002150D6
S11306E02093C400E1ECF0E088E1808386E080930D
S11306F0C20080818068808378941F910F9108954F
S1130700E0ECF0E0808185FFFDCF6093C6000895A2
S11307100F931F93CF93DF93EB016881662341F01E
S11307208C012196C8010E94800369916111FACF5E
S1130730DF91CF911F910F9108955058BB27AA279D
S11307400E94B5030C9494040E94860438F00E941D
S11307508D0420F039F49F3F19F426F40C9483049B
S11307600EF4E095E7FB0C947D04E92F0E94A504A8
S113077058F3BA17620773078407950720F079F4D2
S1130780A6F50C94C7040EF4E0950B2EBA2FA02DF9
S11307900B01B90190010C01CA01A0011124FF272A
S11307A0591B99F0593F50F4503E68F11A16F04025
S11307B0A22F232F342F4427585FF3CF4695379524
S11307C02795A795F0405395C9F77EF41F16BA0BE9
S11307D0620B730B840BBAF09150A1F0FF0FBB1F97
S11307E0661F771F881FC2F70EC0BA0F621F731FE0
S11307F0841F48F4879577956795B795F7959E3F3D
S113080008F0B0CF9395880F08F09927EE0F9795CD
S1130810879508950E9411046894B1110C94C8043A
S113082008950E94AD0488F09F5798F0B92F992736
S1130830B751B0F0E1F0660F771F881F991F1AF0C7
S1130840BA95C9F714C0B13091F00E94C704B1E061
S113085008950C94C704672F782F8827B85F39F060
S1130860B93FCCF3869577956795B395D9F73EF460
S113087090958095709561957F4F8F4F9F4F089508
S1130880E89409C097FB3EF4909580957095619526
S11308907F4F8F4F9F4F9923A9F0F92F96E9BB27DC
S11308A09395F695879577956795B795F111F8CF58
S11308B0FAF4BB0F11F460FF1BC06F5F7F4F8F4FC3
S11308C09F4F16C0882311F096E911C0772321F0B9
S11308D09EE8872F762F05C0662371F096E8862F51
S11308E070E060E02AF09A95660F771F881FDAF7A8
S11308F0880F9695879597F9089597F99F6780E8EB
S113090070E060E008959FEF80EC089500240A945D
S11309101616170618060906089500240A941216D6
S11309201306140605060895092E0394000C11F409
S1130930882352F0BB0F40F4BF2B11F460FF04C0B6
S11309406F5F7F4F8F4F9F4F089557FD9058440F0F
S1130950551F59F05F3F71F04795880F97FB991F1A
S113096061F09F3F79F087950895121613061406D7
S1130970551FF2CF4695F1DF08C016161706180664
S1130980991FF1CF86957105610508940895E8943F
S1130990BB2766277727CB0197F908950E94E104C6
S11309A00C9494040E94860438F00E948D0420F074
S11309B0952311F00C947D040C94830411240C945D
S11309C0C8040E94A50470F3959FC1F3950F50E0ED
S11309D0551F629FF001729FBB27F00DB11D639FED
S11309E0AA27F00DB11DAA1F649F6627B00DA11D93
S11309F0661F829F2227B00DA11D621F739FB00D39
S1130A00A11D621F839FA00D611D221F749F3327A8
S1130A10A00D611D231F849F600D211D822F762F41
S1130A206A2F11249F5750409AF0F1F088234AF01E
S1130A30EE0FFF1FBB1F661F771F881F915050408A
S1130A40A9F79E3F510580F00C947D040C94C804D2
S1130A505F3FE4F3983ED4F3869577956795B79511
S1130A60F795E7959F5FC1F7FE2B880F911D96952B
S1130A70879597F90895A3E1B0E0E1E4F5E00C94DB
S1130A80D9086C014B012A01FC011782168283816B
S1130A9081FF43C3AE014F5F5F4F3A01F60193817B
S1130AA0F40193FD859193FF81914F01882309F40B
S1130AB030C3853239F493FD859193FF81914F01C1
S1130AC0853239F4B60190E00E94040A52012501EE
S1130AD0E5CF10E0F12C20E02032A0F48B3269F055
S1130AE030F4803259F0833269F420612CC08D32A5
S1130AF039F0803339F4216026C02260246023C099
S1130B00286021C027FD27C030ED380F3A3078F433
S1130B1026FF06C0FAE01F9F300D1124132F13C0C7
S1130B204AE0F49E300D1124F32E20620CC08E3264
S1130B3021F426FDEEC2206406C08C3611F4206830
S1130B4002C0883641F4F40193FD859193FF8191AD
S1130B504F018111C1CF9BEB980F933018F42061A2
S1130B60805E06C09BE9980F933008F071C12F7E18
S1130B7026FF16E02F73322E853619F42064322EA8
S1130B8008C0863621F4F22FF0683F2E02C01111FE
S1130B90115037FE07C01C3350F4EE24E394E10EE9
S1130BA027E00BC0183038F027E017E005C027E035
S1130BB04CE3E42E02C0212FE12C520144E0A40EA8
S1130BC0B11CF20160817181828193810E2DA30198
S1130BD00E9416092C01098100FF02C003FF07C00F
S1130BE031FC08C032FE09C030E2232E07C02DE2DA
S1130BF0222E04C09BE2292E01C0212C802F8C7050
S1130C0019F0211068C2A8C237FE0FC0E40C04FF1B
S1130C1004C08A81813309F4EA941E1474F5F8E05F
S1130C20FE1578F588E0E82E2CC036FC2AC0812F0A
S1130C3090E0841595059CF02CEF42162FEF520698
S1130C4074F0432D4068342E0AC0E2E0F0E0EC0F6B
S1130C50FD1FE10FF11D8081803319F41150111132
S1130C60F4CF37FE0EC0EE24E394E10E812F90E022
S1130C70481659062CF4141904C0EE24E39401C058
S1130C8010E037FE06C01414150434F4C2010196B2
S1130C9005C085E090E002C081E090E0211001965B
S1130CA0112331F0212F30E02F5F3F4F820F931F2C
S1130CB02F2D30E08217930714F4F81A01C0F12C99
S1130CC0832D897049F4FF2039F0B60180E290E069
S1130CD00E94040AFA94F7CF222029F0B601822D4B
S1130CE090E00E94040A33FC09C0FF2039F0B601E9
S1130CF080E390E00E94040AFA94F7CF37FE5AC0CA
S1130D00942D852D57FE02C090E080E0292E382EC8
S1130D1020E030E0A2014E1951095D874C87A20101
S1130D20421953095F874E87612F70E04427552786
S1130D30461B570B598B488B5FEF2516350649F434
S1130D40B6018EE290E02A8B3B8B0E94040A3B8919
S1130D502A89421453046CF04C855D854215530571
S1130D6044F4EE85FF85E20FF31FE60DF71D818144
S1130D7001C080E351E0251A31082F5F3F4F4889B5
S1130D805989241635064CF0B60190E02A8B3B8B2A
S1130D900E94040A2A893B89CFCF2414350439F4EC
S1130DA09A81963318F4953311F404FF81E3B60164
S1130DB090E04BC08A81813309F00F7EB60190E048
S1130DC00E94040A111105C034FC18C085E690E0A5
S1130DD017C0B6018EE290E00E94040A82E0EE247D
S1130DE0E394E80EF301E80FF11D8081B60190E071
S1130DF00E94040A11508E2D91F7E6CF85E490E00D
S1130E00B6010E94040A57FC05C04114510439F488
S1130E1004FF05C05194419451088DE201C08BE256
S1130E20B60190E00E94040A80E39AE04916510456
S1130E302CF08F5F5AE0451A5108F7CFB60190E0C5
S1130E400E94040AB601C201C0960E94040A57C156
S1130E50833631F0833779F0833509F058C021C0E7
S1130E605201E2E0AE0EB11CF2018081898301E0FF
S1130E7010E0230114C05201F2E0AF0EB11CF201E4
S1130E804080518026FF03C0612F70E002C06FEFE5
S1130E907FEFC2012A8B0E94F9098C012A892F77DE
S1130EA015C05201F2E0AF0EB11CF2014080518036
S1130EB026FF03C0612F70E002C06FEF7FEFC20115
S1130EC02A8B0E94EE098C012A892068322E23FD88
S1130ED01AC08F2D90E008171907A8F4B60180E214
S1130EE090E00E94040AFA94F4CFF20137FC859151
S1130EF037FE81912F01B60190E00E94040AF1109F
S1130F00FA94015011090115110579F7F8C08436D6
S1130F1011F0893659F5520127FF09C0F4E0AF0EEC
S1130F20B11CF20160817181828193810AC0F2E077
S1130F30AF0EB11CF20160817181072E000C880B89
S1130F40990B2F76322E97FF09C090958095709556
S1130F5061957F4F8F4F9F4F2068322E2AE030E0FB
S1130F60A3010E945F0AE82EE6183FC0022F8537CE
S1130F7021F40F7E2AE030E01DC0097F8F3691F006
S1130F8018F4883559F0C5C0803719F0883711F046
S1130F90C0C0006104FF09C0046007C024FF08C08A
S1130FA0066006C028E030E005C020E130E002C061
S1130FB020E132E0520107FF09C0F4E0AF0EB11C9A
S1130FC0F201608171818281938108C0F2E0AF0EE9
S1130FD0B11CF2016081718180E090E0A3010E9464
S1130FE05F0AE82EE6180F77302E36FE0BC0332D3D
S1130FF03E7FE11650F434FE0AC032FC08C0332DA3
S11310003E7E05C00E2D332D03C00E2D01C0012FD1
S113101034FF0CC0FE01EE0DF11D8081803311F40C
S1131020397E08C032FF05C00E5F04C0832F867866
S113103009F00F5F33FD13C030FF06C01E2D0F15DE
S113104018F41F0D101B0F2D0F1568F4B60180E264
S113105090E03B8B0E94040A0F5F3B89F5CF0F158C
S113106010F4F01A01C0F12C34FF12C0B60180E371
S113107090E03B8B0E94040A3B8932FF17C031FD8C
S113108003C088E790E002C088E590E0B6010CC098
S1131090832F867859F031FF02C08BE201C080E2D1
S11310A037FD8DE2B60190E00E94040AE11638F49F
S11310B0B60180E390E00E94040A1150F7CFEA944D
S11310C0F301EE0DF11D8081B60190E00E94040A47
S11310D0E110F5CF14C0F4E0FF1558F584E0F81AD8
S11310E033FE1EC0211026C003FF2AC008E610E00C
S11310F0F32DF0713F2EF8018491811124C0FF205B
S113110009F4E5CCB60180E290E00E94040AFA9466
S1131110F6CFF6018681978126C08FEF9FEF23C01B
S1131120B60180E290E00E94040AFA94F110F8CF2C
S1131130D9CFF12CB601822D90E00E94040AD4CFBD
S11311400CE610E0D5CF31108052B60190E00E9439
S1131150040A0F5F1F4FCFCF23E02F1510F483E055
S1131160BECFF12CC1CF6396E2E10C94F508A1E265
S11311701A2EAA1BBB1BFD010DC0AA1FBB1FEE1F0D
S1131180FF1FA217B307E407F50720F0A21BB30B58
S1131190E40BF50B661F771F881F991F1A9469F7D4
S11311A060957095809590959B01AC01BD01CF0130
S11311B008952F923F924F925F926F927F928F92F7
S11311C09F92AF92BF92CF92DF92EF92FF920F93D2
S11311D01F93CF93DF93CDB7DEB7CA1BDB0B0FB6DC
S11311E0F894DEBF0FBECDBF09942A883988488899
S11311F05F846E847D848C849B84AA84B984C8842F
S1131200DF80EE80FD800C811B81AA81B981CE0F25
S1131210D11D0FB6F894DEBF0FBECDBFED0108950A
S1131220EE0FFF1F0590F491E02D0994283008F08B
S113123027E03327DA01990F311D87FD916000966D
S11312406105710539F432602E5F3D9330E32A95D0
S1131250E1F708959F3F30F080387105610509F08A
S11312603C5F3C5F3D93913008F08068911DDF93B3
S1131270CF931F930F93FF92EF92192F987F969518
S1131280E92F96959695E90FFF27E653FF4F992787
S11312903327EE24FF24A701E7010590089407945F
S11312A028F4360FE71EF81E491F511D660F771FDD
S11312B0881F991F0694A1F70590079428F4E70E58
S11312C0F81E491F561FC11D770F881F991F661FDF
S11312D00694A1F70590079428F4F80E491F561FA9
S11312E0C71FD11D880F991F661F771F0694A1F78A
S11312F00590079420F4490F561FC71FD81F990F54
S1131300661F771F881F0694A9F78491109517709C
S113131041F0D695C79557954795F794E7941A9554
S1131320C1F7E0E7F0E06894159015913591659167
S1131330959105907FE27395E118F10A430B560BE2
S1131340C90BD009C0F7E10CF11E431F561FC91F7A
S1131350D01D7EF4703311F48A95E6CFE8940150E1
S113136030F0080F0AF40027021708F4202F239501
S1131370022F7A3328F079E37D932A95E9F710C098
S11313807D932A9589F606949795679537951795D1
S11313901794E118F10A430B560BC90BD00998F0C6
S11313A023957E9173957A3308F070E37C93201330
S11313B0B8F77E9170617D9330F0839571E37D93EE
S11313C070E32A95E1F71124EF90FF900F911F919C
S11313D0CF91DF91992787FD90950895FC010590A1
S11313E0615070400110D8F7809590958E0F9F1F23
S11313F00895FC016150704001900110D8F7809568
S113140090958E0F9F1F08950F931F93CF93DF9393
S1131410FB01238121FD03C08FEF9FEF28C022FF32
S113142016C046815781248135814217530744F4FD
S1131430A081B1819D012F5F3F4F318320838C9325
S1131440268137812F5F3F4F3783268310C0EB01FE
S1131450092F182F0084F185E02D0995892BE1F6D9
S11314608E819F8101969F838E83812F902FDF91A0
S1131470CF911F910F910895AEE0B0E0E2E4FAE05D
S11314800C94E7080D891E8986E08C831A830983EE
S11314908FEF9FE79E838D83AE01475E5F4F6F8919
S11314A0788DCE0101960E943B052F813885F80185
S11314B0E20FF31F10822E96E4E00C940309FA0164
S11314C0AA27283051F1203181F1E8946F936E7F7F
S11314D06E5F7F4F8F4F9F4FAF4FB1E03ED0B4E070
S11314E03CD0670F781F891F9A1FA11D680F791FB1
S11314F08A1F911DA11D6A0F711D811D911DA11DC2
S113150020D009F468943F912AE0269F11243019D1
S1131510305D3193DEF6CF010895462F4770405D6C
S11315204193B3E00FD0C9F7F6CF462F4F70405D1B
S11315304A3318F0495D31FD4052419302D0A9F776
S1131540EACFB4E0A6959795879577956795BA9570
S1131550C9F700976105710508959B01AC010A2E36
S113156006945795479537952795BA95C9F7620F0D
S1111570731F841F951FA01D0895F894FFCFCC
S113157E3E20426F6F74696E672E2E2E003E2052EF
S113158E6561642073656E736F7273005425642CE9
S113159E25302E31662C25302E31662C25690D0A08
S10515AE000037
S9030000FC
