:100000000C94B7000C94DF000C94DF000C94DF001C
:100010000C94DF000C94DF000C94DF000C94DF00E4
:100020000C94DF000C94DF000C94DF000C94DF00D4
:100030000C94DF000C9414020C94EF010C94DF007C
:100040000C94DF000C94DF000C94DF000C94DF00B4
:100050000C94DF000C94DF000C94DF000C94DF00A4
:100060000C94DF000C94DF006E616E00696E660018
:1000700000407A10F35A00A0724E18090010A5D45F
:10008000E80000E87648170000E40B54020000CABC
:100090009A3B000000E1F505000080969800000002
:1000A00040420F000000A086010000001027000061
:1000B0000000E803000000006400000000000A00E7
:1000C000000000000100000000002C76D888DC67EA
:1000D0004F0823DFC1DFAE59E1B1B796E5E3E45342
:1000E000C63AE651997696E8E6C28426EB898C9B5F
:1000F00062ED407C6FFCEFBC9C9F40F2BAA56FA5FF
:10010000F490055A2AF75C936B6CF9676DC11BFC80
:10011000E0E40D47FEF520E6B500D0ED902E03009B
:10012000943577050080841E080000204E0A0000E8
:1001300000C80C333333330F986E12831141EF8DA7
:100140002114893BE65516CFFEE6DB18D1844B38E7
:100150001BF77C1D901DA4BBE424203284725E2218
:100160008100C9F124ECA1E53D27BD04580F1124FD
:100170001FBECFEFD8E0DEBFCDBF11E0A0E0B1E001
:10018000ECE8FEE202C005900D92A834B107D9F761
:1001900021E0A8E4B1E001C01D92AE39B207E1F759
:1001A00010E0C7EBD0E004C02197FE010E947D154E
:1001B000C53BD107C9F70E9498040C9444170C94CE
:1001C00000001F93CF93DF93EC01162F188619863A
:1001D0000E94D6041A87DF91CF911F9108950F9343
:1001E0001F93CF938C01C62FFC0182851086880F48
:1001F0000E94DF04F8018085883059F091E0980F63
:100200009087E80FF11DC083F8018085882309F4E9
:100210004EC0C0E0F801EC0FF11D80810E940A057C
:10022000811145C0CF5FF8018085C81798F33FC0A2
:10023000F801918580859817B1F041E0490F418719
:10024000E90FF11D208130E08417D1F19E5FF801A4
:100250009187E40FF11D4081342B981789F19F5F3E
:10026000F80191872DC020E030E02AC081E0F8013C
:1002700080870E941C05F8018083C08581E08C0F77
:1002800080870E941C05F801EC0FF11D8083F801A6
:10029000C08581E08C0F80870E942705F801EC0F54
:1002A000F11D8083F80111860E940605C1CFF80177
:1002B0008285880F81600E94DF048823B9F2B8CF5D
:1002C000C901CF911F910F9108950E94EF00BC01C9
:1002D00080E090E00E9479102AE037ED43EA5CE389
:1002E0000E94301123E333E948E853E40E945F0F92
:1002F000089567E00E946501089566E00E94650127
:10030000089580E28AB91BB85D980895CF92DF9274
:10031000EF92FF920F931F93CF938C015D988AE029
:100320008A95F1F700C05D9AEAE6EA95F1F700C018
:100330005D984E9BFECFE4E8F0E011821082608170
:10034000718180E090E00E9479106B017C01F8944B
:1003500099B1C92FC07496FDFBCF78944091840069
:1003600050918500BA0180E090E00E947910A701C9
:1003700096010E945F0F20E030E040E05FE30E94C2
:1003800030116B017C0120E030E445EB56E40E9423
:100390002B11181674F460E071E08CE891E00E9473
:1003A000840565E471E08CE891E00E948405C1E079
:1003B0000DC020E030E048E652E4C701B6010E94DB
:1003C000D10FF80160837183828393838C2FCF9147
:1003D0001F910F91FF90EF90DF90CF9008951F92A3
:1003E0000F920FB60F9211248F939F93AF93BF93E9
:1003F0008091480190914901A0914A01B0914B012F
:100400000196A11DB11D8093480190934901A093CD
:100410004A01B0934B01BF91AF919F918F910F9083
:100420000FBE0F901F9018951F920F920FB60F924C
:1004300011240F900FBE0F901F90189560914801E6
:100440007091490180914A0190914B010895F8946F
:1004500016BC109285001092840084B5826084BD21
:1004600089EF87BDEEE6F0E0808182608083EFE671
:10047000F0E080818160808385B5836085BDE1E89F
:10048000F0E0808182608083789460E875E28CE897
:1004900091E00E94320588E591E00E94810161E0CF
:1004A0008CE491E00E94A80C84EF91E090934F01BE
:1004B00080934E0108952F923F924F925F926F92D8
:1004C0007F928F929F92AF92BF92CF92DF92EF92E4
:1004D000FF920F931F93CF93DF93CDB7DEB7C7592A
:1004E000D1090FB6F894DEBF0FBECDBF19821A82B4
:1004F0001B821C82FE01359680E6DF011D928A95E3
:10050000E9F788E591E00E9486018CE491E00E9481
:100510002909BC0180E090E00E947910B62EA72E38
:10052000982E892EC0904801D0904901E0904A0150
:10053000F0904B0181E891E00E947901162F072F7E
:10054000782E692E81E891E00E947D01EF966FAFD1
:10055000EF97C158DF4F7883CF57D040382E292EE0
:1005600086E791E00E947901C058DF4F6883C05848
:10057000D040CF57DF4F7883C158D040CE57DF4FA0
:100580008883C258D040CD57DF4F9883C358D0409E
:1005900086E791E00E947D01CC57DF4F6883C45805
:1005A000D040CB57DF4F7883C558D040CA57DF4F74
:1005B0008883C658D040C957DF4F9883C758D0406A
:1005C0008BE691E00E947901C857DF4F6883C858D5
:1005D000D040C757DF4F7883C958D040C657DF4F48
:1005E0008883CA58D040C557DF4F9883CB58D04036
:1005F0008BE691E00E947D01C457DF4F6883CC58A1
:10060000D040C357DF4F7883CD58D040C257DF4F1B
:100610008883CE58D040C157DF4F9883CF58D04001
:1006200080E691E00E947901C057DF4F6883C0598E
:10063000D040CF56DF4F7883C159D040CE56DF4FE0
:100640008883C259D040CD56DF4F9883C359D040DC
:1006500080E691E00E947D01CC56DF4F6883C4594B
:10066000D040CB56DF4F7883C559D040CA56DF4FB4
:100670008883C659D040C956DF4F9883C759D040A8
:100680000F2EF8E54F2EF1E05F2EF02DF201608184
:10069000718182819381FF92EF92DF92CF928F924C
:1006A0009F92AF92BF920E9443107F936F932F92BD
:1006B0003F92C158DF4FF881CF57D040FF93EF965C
:1006C0008FADEF978F936F927F920F931F931F922F
:1006D00081E08F930F2EFDE06F2EF1E07F2EF02D45
:1006E0007F926F928E010B591F4F1F930F930E94A1
:1006F000C316B801CE0101960E947516D2016D9104
:100700007D918D919C91FF92EF92DF92CF928F928B
:100710009F92AF92BF920E9443107F936F93C957ED
:10072000DF4FB881C758D040BF93CA57DF4FE88129
:10073000C658D040EF93CB57DF4FF881C558D04013
:10074000FF93CC57DF4F8881C458D0408F93CD574B
:10075000DF4F9881C358D0409F93CE57DF4FA88179
:10076000C258D040AF93CF57DF4FB881C158D04067
:10077000BF93C058DF4FE881C058D040EF931F921D
:1007800082E08F938BE291E09F938F931F930F935F
:100790000E94C3160FB6F894DEBF0FBECDBFB801DE
:1007A000CE0101960E947516D2016D917D918D91B9
:1007B0009C91FF92EF92DF92CF928F929F92AF9295
:1007C000BF920E9443107F936F93C157DF4FB88150
:1007D000CF58D040BF93C257DF4FE881CE58D040AA
:1007E000EF93C357DF4FF881CD58D040FF93C457E4
:1007F000DF4F8881CC58D0408F93C557DF4F988109
:10080000CB58D0409F93C657DF4FA881CA58D040DD
:10081000AF93C757DF4FB881C958D040BF93C8576F
:10082000DF4FE881C858D040EF931F9283E08F9349
:100830007F926F921F930F930E94C316B801CE014F
:1008400001960E947516D2016D917D918D919C91BA
:10085000FF92EF92DF92CF928F929F92AF92BF92D0
:100860000E9443107F936F93C956DF4FB881C759D9
:10087000D040BF93CA56DF4FE881C659D040EF93AE
:10088000CB56DF4FF881C559D040FF93CC56DF4F90
:100890008881C459D0408F93CD56DF4F9881C3597A
:1008A000D0409F93CE56DF4FA881C259D040AF931E
:1008B000CF56DF4FB881C159D040BF93C057DF4FEB
:1008C000E881C059D040EF931F9284E08F937F92CC
:1008D0006F921F930F930E94C3160FB6F894DEBF5A
:1008E0000FBECDBFB801CE0101960E947516BE01A4
:1008F0006F5F7F4F8CE891E00E948405C956DF4FFF
:100900000FB6F894DEBF0FBECDBFDF91CF911F9120
:100910000F91FF90EF90DF90CF90BF90AF909F909E
:100920008F907F906F905F904F903F902F900895A1
:100930000E94270240E050E0BA018CE491E00E945E
:10094000D408C0904801D0904901E0904A01F0904D
:100950004B010E945B028091480190914901A09156
:100960004A01B0914B018C199D09AE09BF098B3F1B
:100970009105A105B10578F3E4CF6AE581E891E03E
:100980000E94E1006BE586E791E00E94E1006CE5E2
:100990008BE691E00E94E1006DE580E691E00E9427
:1009A000E1008CE491E00E949905089517B880E376
:1009B00088B91092B90088E48093B800089594EA49
:1009C0009093BC00ECEBF0E090819923ECF79091D0
:1009D000B900987F983011F09031A1F48093BB005A
:1009E00084E88093BC00ECEBF0E080818823ECF796
:1009F0009091B900987F983139F081E0903429F4D2
:100A000080E0089581E0089580E0089584E980936E
:100A1000BC0008958093BB0084E88093BC00ECEB9D
:100A2000F0E080818823ECF79091B900987F81E015
:100A3000983209F480E0089584EC8093BC00ECEBDC
:100A4000F0E080818823ECF78091BB00089584E872
:100A50008093BC00ECEBF0E080818823ECF7809180
:100A6000BB0008950F931F938B01770F220B330B5D
:100A7000D901C80180589B47A14EBF4F880F991FCD
:100A8000AA1FBB1F880F991FAA1FBB1FBC01CD0146
:100A9000660F771F881F991F000F111F221F331F1A
:100AA000000F111F221F331FA9019801220F331FAE
:100AB000441F551F220F331F441F551F0E94191535
:100AC000DA01C9010197A109B109892F9A2FAB2F2A
:100AD000BB278093C50021502093C400E1ECF0E0D7
:100AE00088E1808386E08093C20080818068808373
:100AF00078941F910F910895E0ECF0E0808185FFDC
:100B0000FDCF6093C60008950F931F93CF93DF939B
:100B1000EB016881662341F08C012196C8010E9497
:100B20007C0569916111FACFDF91CF911F910F91EF
:100B30000895FC0189E28183138212821482089550
:100B4000EF92FF920F931F93CF93DF937C01062FB9
:100B5000142FFC018181C4E9D1E01886880F0E941E
:100B6000DF04A885A830A1F0E1E0EA0FE0939C0142
:100B7000B0E0AC56BE4F0C93E83051F081E08E0FE0
:100B800080939C01F0E0EC56FE4F1083882389F09F
:100B9000C0E004E911E0EC2FF0E0EC56FE4F80815C
:100BA0000E940A05811109C0CF5FF8019085C9171D
:100BB00090F30E94060580E001C081E0F701808388
:100BC000DF91CF911F910F91FF90EF900895DF92E9
:100BD000EF92FF920F931F93CF93DF937C01D62E5A
:100BE000C42FD52FDC0111968C9104E911E0F80196
:100BF0001086880F0E94DF04D8011896EC91E83027
:100C0000F1F0A1E0AE0FA0939C01F0E0EC56FE4F96
:100C1000D082A830A1F0E1E0EA0FE0939C01B0E0BF
:100C2000AC56BE4FDC93E83051F081E08E0F8093DC
:100C30009C01F0E0EC56FE4FC083882389F0C0E0B1
:100C400004E911E0EC2FF0E0EC56FE4F80810E94A9
:100C50000A05811109C0CF5FF8019085C91790F38B
:100C60000E94060580E001C081E0D7018C93DF91EE
:100C7000CF911F910F91FF90EF90DF9008958F9289
:100C80009F92AF92BF92EF92FF920F931F93CF93D9
:100C9000DF937C01162F49015A01FC018181C4E9CF
:100CA000D1E01886880F0E94DF04A885A83071F172
:100CB000E1E0EA0FE0939C01B0E0AC56BE4F1C931C
:100CC0004B2D552766277727E83061F1A1E0AE0F5D
:100CD000A0939C01F0E0EC56FE4F4083A83031F128
:100CE000E1E0EA0FE0939C01B0E0AC56BE4FAC925D
:100CF000BB27AB2D9A2D892DE830C1F021E02E0FB6
:100D000020939C01F0E0EC56FE4F8083E0919C0123
:100D1000E83061F081E08E0F80939C01F0E0EC56AA
:100D2000FE4F808280919C01882389F0C0E004E915
:100D300011E0EC2FF0E0EC56FE4F80810E940A0596
:100D4000811109C0CF5FF8019085C91790F30E9407
:100D5000060580E001C081E0F7018083DF91CF913B
:100D60001F910F91FF90EF90BF90AF909F908F9049
:100D70000895EF92FF920F931F93CF93DF937C011F
:100D8000162FFC018181C4E9D1E01886880F0E94EA
:100D9000DF04E885E83051F081E08E0F80939C01FC
:100DA000F0E0EC56FE4F1083882389F0C0E004E9A0
:100DB00011E0EC2FF0E0EC56FE4F80810E940A0516
:100DC000811109C0CF5FF8019085C91790F30E9487
:100DD000060580E001C081E0F70180838181880FF2
:100DE00081600E94DF0481110AC0C4E9D1E081E082
:100DF00088870E942705888319860E940605A4E932
:100E0000B1E01996EC91199718968C91E81749F072
:100E100081E08E0F80939D01F0E0EC56FE4F8081C3
:100E200001C080E0DF91CF911F910F91FF90EF9073
:100E30000895EF92FF920F931F93CF93DF937C015E
:100E4000162FFC018181C4E9D1E01886880F0E9429
:100E5000DF04E885E83051F081E08E0F80939C013B
:100E6000F0E0EC56FE4F1083882389F0C0E004E9DF
:100E700011E0EC2FF0E0EC56FE4F80810E940A0555
:100E8000811109C0CF5FF8019085C91790F30E94C6
:100E9000060580E001C081E0F70180838181880F31
:100EA00081600E94DF04811115C0C4E9D1E081E0B6
:100EB00088870E941C058883188581E0810F8887B8
:100EC0000E942705E12FF0E0EC56FE4F8083198643
:100ED0000E940605E4E9F1E0918580859817B1F05C
:100EE000E1E0E90FE0939D01A92FB0E0AC56BE4FC1
:100EF0002C9130E0322F22278E1761F09E5F909365
:100F00009D01F0E0EC56FE4F808105C020E030E00E
:100F100080E001C080E0A901482BCA01DF91CF9198
:100F20001F910F91FF90EF900895CF92DF92EF9273
:100F3000FF920F931F93CF93DF937C01C62E8A01FC
:100F4000D22EFC018181C4E9D1E01886880F0E946D
:100F5000DF04E885E83041F081E08E0F80939C014A
:100F6000F0E0EC56FE4FC082D801A8014D0D511D96
:100F7000C4E9D1E00BC02D91E885E83039F031E0CB
:100F80003E0F3887F0E0EC56FE4F2083A417B507DC
:100F900091F780919C01882381F010E0C4E9D1E0B1
:100FA000E12FF0E0EC56FE4F80810E940A0581118E
:100FB00008C01F5F8885181798F30E94060580E017
:100FC00001C081E0F7018083DF91CF911F910F91E4
:100FD000FF90EF90DF90CF900895CF92DF92EF9245
:100FE000FF920F931F93CF93DF937C01C62FC42EE4
:100FF000D52ED22FDC0111968C9104E911E0F80175
:101000001086880F0E94DF04D8011896EC91E83012
:1010100051F081E08E0F80939C01F0E0EC56FE4F82
:10102000C083882389F0C0E004E911E0EC2FF0E0F0
:10103000EC56FE4F80810E940A05811109C0CF5FE6
:10104000F8019085C91790F30E94060580E001C061
:1010500081E0D7018C9311968C91DD2309F452C065
:10106000880F81600E94DF04811144C010929C01AE
:10107000FF24FA94FD0E89F004E911E0F801C0851F
:1010800081E08C0F80870E941C05EC2FF0E0EC566D
:10109000FE4F8083FA94F110F1CF04E911E0D801FA
:1010A0001896CC91189781E08C0F18968C930E941B
:1010B0002705EC2FF0E0EC56FE4F8083F8011186F7
:1010C0000E94060517C01996EC91199718968C91F5
:1010D0001897E81751F081E08E0F19968C931997A5
:1010E000F0E0EC56FE4F808101C0892F899321509A
:1010F00050F708C02FEF2D0FCC2DDD2DA4E9B1E066
:1011000090E0E1CFDF91CF911F910F91FF90EF9091
:10111000DF90CF900895CF92DF92EF92FF92CF931E
:10112000DF93EC016A017B0120E030E0A901C701F7
:10113000B6010E94CC0F8823DCF028EB3EEF4FEF86
:1011400053E4C701B6010E942B1118169CF020E051
:1011500030E040E053E4C701B6010E9430110E9424
:101160004A10AB0164E4CE010E94E70581E003C0B0
:1011700080E001C080E0DF91CF91FF90EF90DF90A1
:10118000CF900895611106C060E50E94B9068F5F97
:10119000880F0895613031F460E70E94B9068F5FCF
:1011A000880F08958FEF0895CF92DF92EF92FF920C
:1011B000CF93DF93EC016A017B0141E060E80E947C
:1011C000A00541E06FEFCE010E94A00540E060E085
:1011D000CE010E94A0054F8161E9CE010E94A005C9
:1011E00041E060E0CE010E94A00540E06FEFCE013B
:1011F0000E94A00540E060E8CE010E94A005C11455
:10120000D104E104F104C9F068EFCE010E9419078E
:10121000009739F0DC01A70196010E943B156B0194
:101220007C01A701960164E0CE010E943F0644E0E4
:1012300060E0CE010E94A00505C042E060E0CE0162
:101240000E94A005DF91CF91FF90EF90DF90CF90AB
:1012500008950F931F93CF93DF93EC010E941E021A
:101260007E836D8314C08A819B81892B81F00E94CB
:101270001E022D813E81621B730B8A819B81861722
:10128000970728F481E08C838FEF9FEF13C063E111
:10129000CE010E94B906877031F36EE1CE010E9443
:1012A0001907082F192F41E06BE0CE010E94A0051D
:1012B000802F912FDF91CF911F910F910895EF9281
:1012C000FF920F931F93CF93DF93EC017B018A0171
:1012D00041E060E80E94A00541E06FEFCE010E946E
:1012E000A00540E060E0CE010E94A00546E06FEF5F
:1012F000CE010E94A00563E8CE010E94B906482FE6
:10130000446063E8CE010E94A00547E06FEFCE0184
:101310000E94A00541E061E8CE010E94A00541E0E5
:1013200060E8CE010E94A0054BE664E9CE010E9470
:10133000A00540E063E8CE010E94A0050E941E02C5
:101340007E836D8310C08A819B81892B61F00E940E
:101350001E022D813E81621B730B8A819B81861741
:10136000970708F442C063E8CE010E94B9068823BB
:1013700051F341E063E8CE010E94A00562E9CE018D
:101380000E94B906982F9F77F7019083982F991F95
:101390009927991FF801908340E061E8CE010E94EF
:1013A000A00546E06FEFCE010E94A00563E8CE01E4
:1013B0000E94B906482F63E8CE010E94A00541E0D3
:1013C0006FEFCE010E94A00541E060E0CE010E94D7
:1013D000A00540E06FEFCE010E94A00540E060E86C
:1013E000CE010E94A00581E001C080E0DF91CF9195
:1013F0001F910F91FF90EF900895CF93DF93EB0132
:1014000061E00E94B90684FB992790F9988383FBD9
:10141000992790F99A8382FB992790F9998386FB03
:10142000992790F99B83982F991F9927991F9C833F
:10143000DF91CF9108959C013327A90102C0440F89
:10144000551F9A95E2F7CA0101960895009711F188
:101450000197A0E0B0E0AC01BD014427452B462B2D
:10146000472B81F020E030E0B695A79597958795BA
:101470002F5F3F4FAC01BD014427452B462B472B27
:1014800099F702C020E030E09927322F2227822BE3
:10149000932B089580E090E008958F929F92AF92F1
:1014A000BF92CF92DF92EF92FF92CF93DF93EC0146
:1014B000A62FB0E020E03FE24AE350E00E943B1557
:1014C0006C507E4F8F4F9F4F0F2EF8EECF2EF3E0D4
:1014D000DF2EE12CF12CF02DA70196010E941915A9
:1014E00049015A01B694A79497948794DE010E940B
:1014F0003B15680D791D8A1D9B1DA70196010E9451
:101500001915CA01B901DF91CF91FF90EF90DF90DB
:10151000CF90BF90AF909F908F900895EF92FF92E1
:101520000F931F93CF93DF938C017B01EA0160E05F
:101530000E94C20890E09983888366E4C8010E94F3
:10154000B906282F30E0C90101969D838C836881FC
:101550000E944D0A6A877B878C879D8761E5C80159
:101560000E9419070E941B0A9F838E8368810E9434
:101570004D0A6E877F87888B998B61E0C8010E9436
:10158000C20890E09B838A8361E7C8010E94190723
:101590000E941B0A99878887F7012381222331F053
:1015A0002E813F81821B930B998788876A8188856A
:1015B00099850E944D0A6A8B7B8B8C8B9D8BDF916A
:1015C000CF911F910F91FF90EF900895CF92DF92EE
:1015D000EF92FF920F931F93CF93DF93CDB7DEB7B8
:1015E0006B970FB6F894DEBF0FBECDBF8C01BE0166
:1015F000695E7F4F0E94FD09AE014F5F5F4FBE01E4
:10160000695E7F4FC8010E948E0A8F89882359F036
:101610008B859C85AD85BE85BC01CD016C57724F15
:101620008F4F9F4F04C066E37BE080E090E0298D00
:10163000222399F0CB84DC84ED84FE8422EBC20E5D
:1016400022E0D21EE11CF11CCC0CDD1CEE1CFF1CA8
:101650006C0D7D1D8E1D9F1D11C0288D222371F0E4
:10166000CB84DC84ED84FE84E4E9CE0EE2E0DE1E71
:10167000E11CF11C6C0D7D1D8E1D9F1D2A8D2223EA
:1016800071F0CF84D888E988FA88F4E9CF0EF2E0C7
:10169000DF1EE11CF11C6C0D7D1D8E1D9F1D2B8D11
:1016A000222371F0CB88DC88ED88FE8826E2C20E0A
:1016B00022E0D21EE11CF11C6C0D7D1D8E1D9F1DB4
:1016C000F80160877187828793876B960FB6F894CD
:1016D000DEBF0FBECDBFDF91CF911F910F91FF9065
:1016E000EF90DF90CF9008954F925F926F927F922C
:1016F0008F929F92AF92BF92CF92DF92EF92FF9222
:101700004B015C01A42FB0E020E03FE24AE350E04F
:101710000E943B156C507E4F8F4F9F4F28EE33E059
:1017200040E050E00E94191569017A0129013A014F
:101730007694679457944794A8EEB3E0A50194017A
:101740000E943B15640D751D861D971DA70196010E
:101750000E941915CA01B901FF90EF90DF90CF9058
:10176000BF90AF909F908F907F906F905F904F90C1
:1017700008954F925F926F927F92AF92BF92CF92F5
:10178000DF92EF92FF920F931F93CF93DF93CDB72A
:10179000DEB76B970FB6F894DEBF0FBECDBF4032F9
:1017A0002EE452076105710508F485C02A013B014A
:1017B0005C01BE01695E7F4F0E94FD09AE014F5F73
:1017C0005F4FBE01695E7F4FC5010E948E0A8F89FF
:1017D000882359F0CB84DC84ED84FE8486E3C80E34
:1017E0008BE0D81EE11CF11C08C00F2EF8EECF2EA6
:1017F000F8E0DF2EE12CF12CF02D898D882389F083
:101800008B859C85AD85BE858E549D4FAF4FBF4F58
:10181000880F991FAA1FBB1FC80ED91EEA1EFB1EE8
:101820000FC0888D882361F08B859C85AD85BE8532
:101830008C569D4FAF4FBF4FC80ED91EEA1EFB1EE0
:101840000A8D002361F08F859889A989BA898C5601
:101850009D4FAF4FBF4FC80ED91EEA1EFB1E1B8DFA
:10186000112359F1E6E2CE0EE2E0DE1EE11CF11C8E
:101870004C145D046E047F0410F1C301B2016C19B5
:101880007D098E099F094B810E94740B9B010023E7
:1018900021F02F813885260F371FC9010E94260AA3
:1018A000AC0161E7C5010E94E705F501408651865C
:1018B0006286738605C010E003C011E001C010E02D
:1018C000812F6B960FB6F894DEBF0FBECDBFDF91B0
:1018D000CF911F910F91FF90EF90DF90CF90BF902D
:1018E000AF907F906F905F904F900895CF93DF936C
:1018F000EC01462F416060E00E94A0050E941E029C
:101900007E836D830FC08A819B81892B59F00E9451
:101910001E022D813E81621B730B8A819B8186177B
:10192000970790F063E1CE010E94B906877059F3E2
:1019300041E06BE0CE010E94A00540E060E0CE01F6
:101940000E94A00581E001C080E0DF91CF91089561
:10195000FF920F931F93CF93DF93CDB7DEB72897F6
:101960000FB6F894DEBF0FBECDBF8C01662349F0E1
:1019700069E80E94B906482F416069E8C8010E94E1
:10198000A00540E068E8C8010E94A00541E060E8C9
:10199000C8010E94A00541E06FEFC8010E94A005A8
:1019A00040E060E0C8010E94A00561E9C8010E9412
:1019B000B906F801878341E060E0C8010E94A005F4
:1019C00040E06FEFC8010E94A00540E060E8C80158
:1019D0000E94A00560E6C8010E94B906482F426136
:1019E00060E6C8010E94A00540E050E060E87EE3A8
:1019F000C8010E948B084FEF61E0C8010E94A0055A
:101A0000AE01495F5F4FBE01685F7F4FC8010E9412
:101A10005F09F82E882309F43EC226E0AE014F5F2D
:101A20005F4F60EBC8010E94ED0741E06FEFC80116
:101A30000E94A00540E06FE4C8010E94A0054CE2AE
:101A40006EE4C8010E94A00540E06FEFC8010E944B
:101A5000A00544EB66EBC8010E94A0058F818111AF
:101A600002C060E001C06CE0A88590E070E041E059
:101A700050E0961710F07A1318C0892F8695869536
:101A80008695E1E0F0E0EC0FFD1FE80FF11D892FD6
:101A900087709A0102C0220F331F8A95E2F7822FC6
:101AA000809520818223808315C0892F8695869515
:101AB0008695E1E0F0E0EC0FFD1FE80FF11D2081BD
:101AC00030E0892F877002C0359527958A95E2F717
:101AD00020FD7F5F9F5F903361F626E0AE014F5F90
:101AE0005F4F60EBC8010E94950741E06FEFC801AE
:101AF0000E94A00540E060E0C8010E94A00540E00F
:101B00006FEFC8010E94A00540E069E0C8010E9493
:101B1000A00540E060E1C8010E94A00540E061E14D
:101B2000C8010E94A00541E064E2C8010E94A0052E
:101B30004FEF65E2C8010E94A00540E065E7C801DB
:101B40000E94A00541E06FEFC8010E94A0054CE291
:101B50006EE4C8010E94A00540E068E4C8010E944C
:101B6000A00540E260E3C8010E94A00540E06FEFDD
:101B7000C8010E94A00549E060E3C8010E94A005D9
:101B800040E064E5C8010E94A00544E061E3C801AB
:101B90000E94A00543E062E3C8010E94A00543E85B
:101BA00060E4C8010E94A00545E266E4C8010E9405
:101BB000A00540E060E6C8010E94A00540E067E2A1
:101BC000C8010E94A00546E060E5C8010E94A0058A
:101BD00040E061E5C8010E94A00546E962E5C80150
:101BE0000E94A00548E066E5C8010E94A00540E308
:101BF00067E5C8010E94A00540E061E6C8010E94B7
:101C0000A00540E062E6C8010E94A00540E064E64D
:101C1000C8010E94A00540E065E6C8010E94A00539
:101C200040EA66E6C8010E94A00541E06FEFC801E6
:101C30000E94A00542E362E2C8010E94A00544E1BF
:101C400067E4C8010E94A0054FEF69E4C8010E9443
:101C5000A00540E06AE4C8010E94A00540E06FEFE3
:101C6000C8010E94A0054AE06AE7C8010E94A005D9
:101C700040E06BE7C8010E94A00541E268E7C801A7
:101C80000E94A00541E06FEFC8010E94A00544E357
:101C900063E2C8010E94A00540E062E4C8010E941E
:101CA000A0054FEF64E4C8010E94A00546E265E488
:101CB000C8010E94A00545E066E4C8010E94A00595
:101CC00040E460E4C8010E94A00546E06EE0C8015F
:101CD0000E94A0054AE160E2C8010E94A00540E41C
:101CE00063E4C8010E94A00540E06FEFC8010E94B4
:101CF000A00543E064E3C8010E94A00544E465E355
:101D0000C8010E94A00541E06FEFC8010E94A00534
:101D100044E061E3C8010E94A00549E06BE4C8010A
:101D20000E94A00545E06CE4C8010E94A00544E0C3
:101D30006DE4C8010E94A00540E06FEFC8010E9459
:101D4000A00540E064E4C8010E94A00540E265E40B
:101D5000C8010E94A00548E067E4C8010E94A005F0
:101D600048E268E4C8010E94A00540E067E6C801B7
:101D70000E94A00544E060E7C8010E94A00541E080
:101D800061E7C8010E94A0054EEF62E7C8010E940A
:101D9000A00540E066E7C8010E94A00540E067E7B3
:101DA000C8010E94A00541E06FEFC8010E94A00594
:101DB00041E06DE0C8010E94A00540E06FEFC8015E
:101DC0000E94A00541E060E8C8010E94A00548EF1C
:101DD00061E0C8010E94A00541E06FEFC8010E94C8
:101DE000A00541E06EE8C8010E94A00541E060E066
:101DF000C8010E94A00540E06FEFC8010E94A00545
:101E000040E060E8C8010E94A00544E06AE0C80123
:101E10000E94A00564E8C8010E94B906482F4F7EC1
:101E200064E8C8010E94A00541E06BE0C8010E947F
:101E3000A005C8010E94E60AF801608771878287C1
:101E4000938748EE61E0C8010E94A005F801408533
:101E5000518562857385C8010E94B90B41E061E03C
:101E6000C8010E94A00560E4C8010E94760CF82E0B
:101E7000882389F042E061E0C8010E94A00560E08B
:101E8000C8010E94760CF82E882329F048EE61E004
:101E9000C8010E94A0058F2D28960FB6F894DEBFCA
:101EA0000FBECDBFDF91CF911F910F91FF9008958D
:101EB000E4E9F1E0108611860E94D6040895505896
:101EC000BB27AA270E94770F0C94F1100E94E31001
:101ED00038F00E94EA1020F039F49F3F19F426F4FC
:101EE0000C94E0100EF4E095E7FB0C94DA10E92F67
:101EF0000E94021158F3BA17620773078407950707
:101F000020F079F4A6F50C9424110EF4E0950B2E34
:101F1000BA2FA02D0B01B90190010C01CA01A0013B
:101F20001124FF27591B99F0593F50F4503E68F196
:101F30001A16F040A22F232F342F4427585FF3CFD7
:101F4000469537952795A795F0405395C9F77EF4A8
:101F50001F16BA0B620B730B840BBAF09150A1F0F1
:101F6000FF0FBB1F661F771F881FC2F70EC0BA0F77
:101F7000621F731F841F48F4879577956795B795FF
:101F8000F7959E3F08F0B0CF9395880F08F09927FA
:101F9000EE0F9795879508950E94B61008F481E09A
:101FA00008950E94E50F0C94F1100E94EA1058F079
:101FB0000E94E31040F029F45F3F29F00C94DA10FE
:101FC00051110C9425110C94E0100E94021168F339
:101FD0009923B1F3552391F3951B550BBB27AA27E2
:101FE00062177307840738F09F5F5F4F220F331F1C
:101FF000441FAA1FA9F335D00E2E3AF0E0E832D0E4
:1020000091505040E695001CCAF72BD0FE2F29D0E6
:10201000660F771F881FBB1F261737074807AB07B8
:10202000B0E809F0BB0B802DBF01FF2793585F4F2D
:102030003AF09E3F510578F00C94DA100C9425117B
:102040005F3FE4F3983ED4F3869577956795B7950F
:10205000F7959F5FC9F7880F911D9695879597F91A
:102060000895E1E0660F771F881FBB1F6217730793
:102070008407BA0720F0621B730B840BBA0BEE1FA8
:1020800088F7E09508950E944A106894B1110C9465
:10209000251108950E940A1188F09F5798F0B92FD2
:1020A0009927B751B0F0E1F0660F771F881F991F8D
:1020B0001AF0BA95C9F714C0B13091F00E942411FA
:1020C000B1E008950C942411672F782F8827B85F0A
:1020D00039F0B93FCCF3869577956795B395D9F7E5
:1020E0003EF490958095709561957F4F8F4F9F4FEF
:1020F0000895E89409C097FB3EF4909580957095FB
:1021000061957F4F8F4F9F4F9923A9F0F92F96E943
:10211000BB279395F695879577956795B795F111B8
:10212000F8CFFAF4BB0F11F460FF1BC06F5F7F4F55
:102130008F4F9F4F16C0882311F096E911C0772367
:1021400021F09EE8872F762F05C0662371F096E870
:10215000862F70E060E02AF09A95660F771F881F3F
:10216000DAF7880F9695879597F90895990F0008E3
:10217000550FAA0BE0E8FEEF16161706E807F90759
:10218000C0F012161306E407F50798F0621B730BF4
:10219000840B950B39F40A2661F0232B242B252B75
:1021A00021F408950A2609F4A140A6958FEF811D18
:1021B000811D089597F99F6780E870E060E00895B9
:1021C0009FEF80EC089500240A941616170618064F
:1021D0000906089500240A9412161306140605062B
:1021E0000895092E0394000C11F4882352F0BB0FBC
:1021F00040F4BF2B11F460FF04C06F5F7F4F8F4F1F
:102200009F4F089557FD9058440F551F59F05F3F59
:1022100071F04795880F97FB991F61F09F3F79F008
:1022200087950895121613061406551FF2CF46958A
:10223000F1DF08C0161617061806991FF1CF86950C
:102240007105610508940895E894BB2766277727F0
:10225000CB0197F908950E94B61008F48FEF089506
:102260000E9443110C94F1100E94E31038F00E9478
:10227000EA1020F0952311F00C94DA100C94E01081
:1022800011240C9425110E94021170F3959FC1F343
:10229000950F50E0551F629FF001729FBB27F00D14
:1022A000B11D639FAA27F00DB11DAA1F649F662769
:1022B000B00DA11D661F829F2227B00DA11D621FB8
:1022C000739FB00DA11D621F839FA00D611D221F72
:1022D000749F3327A00D611D231F849F600D211D56
:1022E000822F762F6A2F11249F5750409AF0F1F0D9
:1022F00088234AF0EE0FFF1FBB1F661F771F881F42
:1023000091505040A9F79E3F510580F00C94DA108F
:102310000C9425115F3FE4F3983ED4F386957795AE
:102320006795B795F795E7959F5FC1F7FE2B880FE7
:10233000911D9695879597F90895A3E1B0E0E3EA9A
:10234000F1E10C9446156C014B012A01FC01178246
:102350001682838181FF43C3AE014F5F5F4F3A0115
:10236000F6019381F40193FD859193FF81914F01D3
:10237000882309F430C3853239F493FD859193FFA6
:1023800081914F01853239F4B60190E00E948B169D
:1023900052012501E5CF10E0F12C20E02032A0F41D
:1023A0008B3269F030F4803259F0833269F4206165
:1023B0002CC08D3239F0803339F4216026C0226080
:1023C000246023C0286021C027FD27C030ED380FCE
:1023D0003A3078F426FF06C0FAE01F9F300D112432
:1023E000132F13C04AE0F49E300D1124F32E206207
:1023F0000CC08E3221F426FDEEC2206406C08C365D
:1024000011F4206802C0883641F4F40193FD8591EF
:1024100093FF81914F018111C1CF9BEB980F9330B6
:1024200018F42061805E06C09BE9980F933008F095
:1024300071C12F7E26FF16E02F73322E853619F4D8
:102440002064322E08C0863621F4F22FF0683F2E29
:1024500002C01111115037FE07C01C3350F4EE2496
:10246000E394E10E27E00BC0183038F027E017E0C6
:1024700005C027E04CE3E42E02C0212FE12C5201DD
:1024800044E0A40EB11CF2016081718182819381CC
:102490000E2DA3010E9492152C01098100FF02C09C
:1024A00003FF07C031FC08C032FE09C030E2232E12
:1024B00007C02DE2222E04C09BE2292E01C0212C50
:1024C000802F8C7019F0211068C2A8C237FE0FC08F
:1024D000E40C04FF04C08A81813309F4EA941E14D9
:1024E00074F5F8E0FE1578F588E0E82E2CC036FC8F
:1024F0002AC0812F90E0841595059CF02CEF4216A0
:102500002FEF520674F0432D4068342E0AC0E2E0EB
:10251000F0E0EC0FFD1FE10FF11D8081803319F415
:1025200011501111F4CF37FE0EC0EE24E394E10EEA
:10253000812F90E0481659062CF4141904C0EE249B
:10254000E39401C010E037FE06C01414150434F4FF
:10255000C201019605C085E090E002C081E090E0F4
:1025600021100196112331F0212F30E02F5F3F4FD2
:10257000820F931F2F2D30E08217930714F4F81A5F
:1025800001C0F12C832D897049F4FF2039F0B60188
:1025900080E290E00E948B16FA94F7CF222029F077
:1025A000B601822D90E00E948B1633FC09C0FF20FB
:1025B00039F0B60180E390E00E948B16FA94F7CFD1
:1025C00037FE5AC0942D852D57FE02C090E080E062
:1025D000292E382E20E030E0A2014E1951095D87E6
:1025E0004C87A201421953095F874E87612F70E023
:1025F00044275527461B570B598B488B5FEF2516F1
:10260000350649F4B6018EE290E02A8B3B8B0E949E
:102610008B163B892A89421453046CF04C855D85E6
:102620004215530544F4EE85FF85E20FF31FE60DD6
:10263000F71D818101C080E351E0251A31082F5F29
:102640003F4F48895989241635064CF0B60190E071
:102650002A8B3B8B0E948B162A893B89CFCF24146F
:10266000350439F49A81963318F4953311F404FF44
:1026700081E3B60190E04BC08A81813309F00F7E7F
:10268000B60190E00E948B16111105C034FC18C0F1
:1026900085E690E017C0B6018EE290E00E948B16AE
:1026A00082E0EE24E394E80EF301E80FF11D80814F
:1026B000B60190E00E948B1611508E2D91F7E6CF57
:1026C00085E490E0B6010E948B1657FC05C04114CA
:1026D000510439F404FF05C05194419451088DE22E
:1026E00001C08BE2B60190E00E948B1680E39AE075
:1026F000491651042CF08F5F5AE0451A5108F7CF64
:10270000B60190E00E948B16B601C201C0960E94ED
:102710008B1657C1833631F0833779F0833509F052
:1027200058C021C05201E2E0AE0EB11CF20180811E
:10273000898301E010E0230114C05201F2E0AF0EE2
:10274000B11CF2014080518026FF03C0612F70E070
:1027500002C06FEF7FEFC2012A8B0E9480168C01AE
:102760002A892F7715C05201F2E0AF0EB11CF20199
:102770004080518026FF03C0612F70E002C06FEFE0
:102780007FEFC2012A8B0E946A168C012A89206879
:10279000322E23FD1AC08F2D90E008171907A8F4D8
:1027A000B60180E290E00E948B16FA94F4CFF20119
:1027B00037FC859137FE81912F01B60190E00E9490
:1027C0008B16F110FA94015011090115110579F7D2
:1027D000F8C0843611F0893659F5520127FF09C037
:1027E000F4E0AF0EB11CF2016081718182819381AE
:1027F0000AC0F2E0AF0EB11CF20160817181072EB8
:10280000000C880B990B2F76322E97FF09C09095FC
:102810008095709561957F4F8F4F9F4F2068322E26
:102820002AE030E0A3010E94E616E82EE6183FC039
:10283000022F853721F40F7E2AE030E01DC0097F8A
:102840008F3691F018F4883559F0C5C0803719F0EB
:10285000883711F0C0C0006104FF09C0046007C0E0
:1028600024FF08C0066006C028E030E005C020E173
:1028700030E002C020E132E0520107FF09C0F4E07D
:10288000AF0EB11CF201608171818281938108C019
:10289000F2E0AF0EB11CF2016081718180E090E046
:1028A000A3010E94E616E82EE6180F77302E36FEBA
:1028B0000BC0332D3E7FE11650F434FE0AC032FCCB
:1028C00008C0332D3E7E05C00E2D332D03C00E2DC6
:1028D00001C0012F34FF0CC0FE01EE0DF11D8081FF
:1028E000803311F4397E08C032FF05C00E5F04C08A
:1028F000832F867809F00F5F33FD13C030FF06C0C9
:102900001E2D0F1518F41F0D101B0F2D0F1568F439
:10291000B60180E290E03B8B0E948B160F5F3B89F3
:10292000F5CF0F1510F4F01A01C0F12C34FF12C0CE
:10293000B60180E390E03B8B0E948B163B8932FF0F
:1029400017C031FD03C088E790E002C088E590E041
:10295000B6010CC0832F867859F031FF02C08BE29C
:1029600001C080E237FD8DE2B60190E00E948B1637
:10297000E11638F4B60180E390E00E948B16115006
:10298000F7CFEA94F301EE0DF11D8081B60190E0DE
:102990000E948B16E110F5CF14C0F4E0FF1558F536
:1029A00084E0F81A33FE1EC0211026C003FF2AC09F
:1029B00008E610E0F32DF0713F2EF80184918111AB
:1029C00024C0FF2009F4E5CCB60180E290E00E942B
:1029D0008B16FA94F6CFF6018681978126C08FEF89
:1029E0009FEF23C0B60180E290E00E948B16FA941C
:1029F000F110F8CFD9CFF12CB601822D90E00E94D2
:102A00008B16D4CF0CE610E0D5CF31108052B60132
:102A100090E00E948B160F5F1F4FCFCF23E02F1542
:102A200010F483E0BECFF12CC1CF6396E2E10C94A9
:102A30006215A1E21A2EAA1BBB1BFD010DC0AA1F25
:102A4000BB1FEE1FFF1FA217B307E407F50720F017
:102A5000A21BB30BE40BF50B661F771F881F991F92
:102A60001A9469F760957095809590959B01AC01DB
:102A7000BD01CF0108950E948315A59F900DB49FBD
:102A8000900DA49F800D911D112408952F923F92C7
:102A90004F925F926F927F928F929F92AF92BF926E
:102AA000CF92DF92EF92FF920F931F93CF93DF931A
:102AB000CDB7DEB7CA1BDB0B0FB6F894DEBF0FBE77
:102AC000CDBF09942A88398848885F846E847D84C4
:102AD0008C849B84AA84B984C884DF80EE80FD80C6
:102AE0000C811B81AA81B981CE0FD11D0FB6F8943C
:102AF000DEBF0FBECDBFED010895EE0FFF1F0590A5
:102B0000F491E02D0994A29FB001B39FC001A39F4F
:102B1000700D811D1124911DB29F700D811D112416
:102B2000911D0895283008F027E03327DA01990F26
:102B3000311D87FD916000966105710539F43260A1
:102B40002E5F3D9330E32A95E1F708959F3F30F0E3
:102B500080387105610509F03C5F3C5F3D93913021
:102B600008F08068911DDF93CF931F930F93FF921E
:102B7000EF92192F987F9695E92F96959695E90FE4
:102B8000FF27E653FF4F99273327EE24FF24A701A1
:102B9000E70105900894079428F4360FE71EF81E05
:102BA000491F511D660F771F881F991F0694A1F7B3
:102BB0000590079428F4E70EF81E491F561FC11D03
:102BC000770F881F991F661F0694A1F70590079439
:102BD00028F4F80E491F561FC71FD11D880F991FD3
:102BE000661F771F0694A1F70590079420F4490FFC
:102BF000561FC71FD81F990F661F771F881F06947F
:102C0000A9F784911095177041F0D695C7955795FF
:102C10004795F794E7941A95C1F7E0E7F0E06894D8
:102C20001590159135916591959105907FE2739579
:102C3000E118F10A430B560BC90BD009C0F7E10CA0
:102C4000F11E431F561FC91FD01D7EF4703311F4AF
:102C50008A95E6CFE894015030F0080F0AF4002777
:102C6000021708F4202F2395022F7A3328F079E3F6
:102C70007D932A95E9F710C07D932A9589F60694ED
:102C800097956795379517951794E118F10A430BB7
:102C9000560BC90BD00998F023957E9173957A3322
:102CA00008F070E37C932013B8F77E9170617D93F8
:102CB00030F0839571E37D9370E32A95E1F7112459
:102CC000EF90FF900F911F91CF91DF91992787FD92
:102CD00090950895FC010590615070400110D8F75F
:102CE000809590958E0F9F1F0895FB01DC010D903C
:102CF0000020E9F7119701900D920020E1F7089567
:102D0000FC016150704001900110D8F780959095BA
:102D10008E0F9F1F08950F931F93CF93DF93FB0197
:102D2000238121FD03C08FEF9FEF28C022FF16C033
:102D300046815781248135814217530744F4A0818D
:102D4000B1819D012F5F3F4F318320838C9326817A
:102D500037812F5F3F4F3783268310C0EB01092F48
:102D6000182F0084F185E02D0995892BE1F68E81DD
:102D70009F8101969F838E83812F902FDF91CF912A
:102D80001F910F910895AEE0B0E0E9ECF6E10C94EC
:102D900054150D891E8986E08C831A8309838FEF71
:102DA0009FE79E838D83AE01475E5F4F6F89788D6D
:102DB000CE0101960E949D112F813885F801E20F06
:102DC000F31F10822E96E4E00C947015FA01AA27E6
:102DD000283051F1203181F1E8946F936E7F6E5F5E
:102DE0007F4F8F4F9F4FAF4FB1E03ED0B4E03CD00C
:102DF000670F781F891F9A1FA11D680F791F8A1FEF
:102E0000911DA11D6A0F711D811D911DA11D20D055
:102E100009F468943F912AE0269F11243019305D0F
:102E20003193DEF6CF010895462F4770405D419300
:102E3000B3E00FD0C9F7F6CF462F4F70405D4A334D
:102E400018F0495D31FD4052419302D0A9F7EACF15
:102E5000B4E0A6959795879577956795BA95C9F744
:102E600000976105710508959B01AC010A2E069437
:102E70005795479537952795BA95C9F7620F731FF0
:0C2E8000841F951FA01D0895F894FFCF3B
:102E8C004F7574206F662072616E676500542564FF
:102E9C002C25302E31662C25302E31662C25692CB4
:102EAC00252E32662C256C750D0A005425642C25B4
:102EBC002E31662C25302E31662C25692C252E3290
:082ECC00662C256C750D0A004F
:00000001FF
