S01100004D4C58204D756C74692E73726563F7
S11300000C94B7000C94DF000C94DF000C94DF0018
S11300100C94DF000C94DF000C94DF000C94DF00E0
S11300200C94DF000C94DF000C94DF000C94DF00D0
S11300300C94DF000C94FE010C94D9010C94DF00A5
S11300400C94DF000C94DF000C9457030C94DF0035
S11300500C94DF000C94DF000C94DF000C94DF00A0
S11300600C94DF000C94DF006E616E00696E660014
S113007000407A10F35A00A0724E18090010A5D45B
S1130080E80000E87648170000E40B54020000CAB8
S11300909A3B000000E1F5050000809698000000FE
S11300A040420F000000A08601000000102700005D
S11300B00000E803000000006400000000000A00E3
S11300C0000000000100000000002C76D888DC67E6
S11300D04F0823DFC1DFAE59E1B1B796E5E3E4533E
S11300E0C63AE651997696E8E6C28426EB898C9B5B
S11300F062ED407C6FFCEFBC9C9F40F2BAA56FA5FB
S1130100F490055A2AF75C936B6CF9676DC11BFC7C
S1130110E0E40D47FEF520E6B500D0ED902E030097
S1130120943577050080841E080000204E0A0000E4
S113013000C80C333333330F986E12831141EF8DA3
S11301402114893BE65516CFFEE6DB18D1844B38E3
S11301501BF77C1D901DA4BBE424203284725E2214
S11301608100C9F124ECA1E53D27060321041124F3
S11301701FBECFEFD8E0DEBFCDBF11E0A0E0B1E0FD
S1130180E8E0F6E102C005900D92A63BB107D9F76D
S113019022E0A6EBB1E001C01D92A330B207E1F763
S11301A010E0C7EBD0E004C02197FE010E9455097E
S11301B0C53BD107C9F70E9481020C94020B0C9431
S11301C000001F93CF93DF93EC01162F1886198636
S11301D00E9411031A87DF91CF911F910895862FF2
S11301E0842798E027E088231CF4880F822701C025
S11301F0880F9150C1F70895DF92EF92FF920F9309
S11302001F93CF93DF938C01E62EF42ED52FFC01A0
S1130210C285CC0F4C2F60E00E94EF004E2D682F5A
S1130220C8010E94EF004F2D682FC8010E94EF0003
S11302304D2F682FC8010E94EF00D82EF8011086B8
S11302408C2F0E941A03F8019085983021F181E0E7
S1130250890F8087E90FF11DE082F80190859830BD
S1130260F1F081E0890F8087E90FF11DF082F80138
S113027090859830A1F081E0890F8087E90FF11D06
S1130280D083F8019085983051F081E0890F808700
S1130290E90FF11DD082F8018085882371F0C0E058
S11302A0F801EC0FF11D80810E944503811109C002
S11302B0CF5FF8018085C81798F30E94410380E05E
S11302C001C081E0DF91CF911F910F91FF90EF90DA
S11302D0DF900895EF92FF921F93CF93DF93EC0189
S11302E0162F7A0140E050E00E94FC00811117C0F3
S11302F08FE19EE40197F1F700C00000A701612F90
S1130300CE010E94FC00982FEFE1FEE43197F1F753
S113031000C0000081E0911103C080E001C081E0D1
S1130320DF91CF911F91FF90EF900895CF92DF92CC
S1130330EF92FF92CF93DF93EC016A017B0120E0FF
S113034030E040E85FE3C701B6010E940E051816CD
S11303500CF12DEC3CEC4CEC5DE3C701B6010E94C2
S113036028048823CCF020E03FEF4FE757E4C7018F
S1130370B6010E9413050E942D04611520E2720744
S113038010F0AB0102C040E050E264E2CE010E94F2
S11303906A0103C080E001C080E0DF91CF91FF904B
S11303A0EF90DF90CF90089580E28AB91BB85D98F2
S11303B008951F920F920FB60F9211248F939F935B
S11303C0AF93BF938091B6019091B701A091B8010A
S11303D0B091B9010196A11DB11D8093B60190930E
S11303E0B701A093B801B093B901BF91AF919F91A8
S11303F08F910F900FBE0F901F9018951F920F9220
S11304000FB60F9211240F900FBE0F901F901895E6
S1130410CF93F894C4B714BE16BC10928500109202
S1130420840084B5826084BD89EF87BDEEE6F0E088
S1130430808182608083EFE6F0E080818160808348
S113044085B5836085BDE1E8F0E0808182608083CA
S1130450789460E875E288ED91E00E94610340E1E0
S113046050E06C2F88ED91E00E94DF0360E071E0C2
S113047088ED91E00E94CA036DE071E088ED91E09F
S11304800E94CA038AEB91E00E94D401CF9108959F
S113049069E571E088ED91E00E94CA036DE071E0C6
S11304A088ED91E00E94CA030895CF92DF92EF9203
S11304B0FF92CF93C82F60E671E088ED91E00E942F
S11304C0CA036DE071E088ED91E00E94CA036C2FCD
S11304D070E080E090E00E945C046B017C01AB0161
S11304E0BC0182EC91E00E949601B701A6018DEC5B
S11304F091E00E949601CF91FF90EF90DF90CF9012
S113050008950E940802C090B601D090B701E0900F
S1130510B801F090B90169E671E088ED91E00E94BC
S1130520CA036DE071E088ED91E00E94CA0388ED92
S113053091E00E949303882309F456C088ED91E06A
S11305400E94A103EC01BC0188ED91E00E94CA0362
S11305506DE071E088ED91E00E94CA0388818337E1
S113056009F042C06BE771E088ED91E00E94CA0394
S11305706DE071E088ED91E00E94CA0366E871E0E5
S113058088ED91E00E94CA036DE071E088ED91E08E
S11305900E94CA0363E971E088ED91E00E94CA03F6
S11305A06DE071E088ED91E00E94CA0388ED91E06E
S11305B00E949903813019F0823021F015C00E9405
S11305C0480212C065EA71E088ED91E00E94CA0316
S11305D06DE071E088ED91E00E94CA0388ED91E03E
S11305E00E9499030E9455028091B6019091B7012F
S11305F0A091B801B091B9018C199D09AE09BF0948
S1130600893E9340A105B10578F37DCF6AE582EC7C
S113061091E00E94E1006BE58DEC91E00E94E10025
S1130620089517B880E388B91092B90088E48093DC
S1130630B800089594EA9093BC00ECEBF0E090814C
S11306409923ECF79091B900987F983011F090318C
S1130650A1F48093BB0084E88093BC00ECEBF0E051
S113066080818823ECF79091B900987F983139F014
S113067081E0903429F480E0089581E0089580E0D9
S1130680089584E98093BC0008958093BB0084E8B6
S11306908093BC00ECEBF0E080818823ECF7909130
S11306A0B900987F81E0983209F480E008951F92A0
S11306B00F920FB60F9211240F900FBE0F901F9040
S11306C01895CB01770FAA0BBB0B880F991FAA1F94
S11306D0BB1F880F991FAA1FBB1F9C01AD01220FCE
S11306E0331F441F551F220F331F441F551F60E043
S11306F074E284EF90E00E94FC08DA01C9010197DA
S1130700A109B109892F9A2FAB2FBB278093C5006C
S113071021502093C40088E98093C10086E080932F
S1130720C200789408958091C000881F8827881F8C
S11307300895E0ECF0E080818823ECF78091C60016
S113074008950F931F93CF93DF93C9EDD1E009EF81
S113075011E088ED91E00E9499038D3049F08A30D0
S113076051F08993C017D107A1F789ED91E005C035
S113077080E090E002C080E090E0DF91CF911F9193
S11307800F910895E0ECF0E0808185FFFDCF609348
S1130790C60008950F931F93CF93DF93EB016881F5
S11307A0662341F08C012196C8010E94C20369911D
S11307B06111FACFDF91CF911F910F9108950F939B
S11307C01F93CF93DF9300D000D01F92CDB7DEB735
S11307D08C014A30510599F41F926F9380EB91E09C
S11307E09F938F93CE0101969F938F930E94810ACA
S11307F00F900F900F900F900F900F9012C01F92B8
S11308006F9323EB31E03F932F93CE0101969F9397
S11308108F930E94810A0F900F900F900F900F906A
S11308200F90BE016F5F7F4FC8010E94CA030F90F3
S11308300F900F900F900F90DF91CF911F910F9118
S11308400895E9EFF1E0108611860E9411030895DE
S11308500E94990408F481E008950E94ED0488F050
S11308609F5798F0B92F9927B751B0F0E1F0660F70
S1130870771F881F991F1AF0BA95C9F714C0B130B1
S113088091F00E940705B1E008950C940705672FC5
S1130890782F8827B85F39F0B93FCCF386957795E0
S11308A06795B395D9F73EF49095809570956195C9
S11308B07F4F8F4F9F4F0895E89409C097FB3EF4F4
S11308C090958095709561957F4F8F4F9F4F992399
S11308D0A9F0F92F96E9BB279395F6958795779517
S11308E06795B795F111F8CFFAF4BB0F11F460FFD7
S11308F01BC06F5F7F4F8F4F9F4F16C0882311F02F
S113090096E911C0772321F09EE8872F762F05C042
S1130910662371F096E8862F70E060E02AF09A95DD
S1130920660F771F881FDAF7880F9695879597F9D2
S11309300895990F0008550FAA0BE0E8FEEF16166C
S11309401706E807F907C0F012161306E407F507BF
S113095098F0621B730B840B950B39F40A2661F033
S1130960232B242B252B21F408950A2609F4A140D6
S1130970A6958FEF811D811D089597F99F6780E8E3
S113098070E060E008959FEF80EC089500240A94DD
S11309901616170618060906089500240A94121656
S11309A01306140605060895092E0394000C11F489
S11309B0882352F0BB0F40F4BF2B11F460FF04C036
S11309C06F5F7F4F8F4F9F4F089557FD9058440F8F
S11309D0551F59F05F3F71F04795880F97FB991F9A
S11309E061F09F3F79F08795089512161306140657
S11309F0551FF2CF4695F1DF08C0161617061806E4
S1130A00991FF1CF86957105610508940895E894BE
S1130A10BB2766277727CB0197F908950E9499048D
S1130A2008F48FEF08950E9426050C94D4040E94C4
S1130A30C60438F00E94CD0420F0952311F00C94E4
S1130A40BD040C94C30411240C9408050E94E5040D
S1130A5070F3959FC1F3950F50E0551F629FF0010D
S1130A60729FBB27F00DB11D639FAA27F00DB11D26
S1130A70AA1F649F6627B00DA11D661F829F2227AF
S1130A80B00DA11D621F739FB00DA11D621F839F36
S1130A90A00D611D221F749F3327A00D611D231F0C
S1130AA0849F600D211D822F762F6A2F11249F575A
S1130AB050409AF0F1F088234AF0EE0FFF1FBB1F5D
S1130AC0661F771F881F91505040A9F79E3F51051C
S1130AD080F00C94BD040C9408055F3FE4F3983E49
S1130AE0D4F3869577956795B795F795E7959F5FC6
S1130AF0C1F7FE2B880F911D9695879597F9089558
S1130B00A3E1B0E0E6E8F5E00C941E096C014B01AA
S1130B102A01FC0117821682838181FF43C3AE013F
S1130B204F5F5F4F3A01F6019381F40193FD859184
S1130B3093FF81914F01882309F430C3853239F43E
S1130B4093FD859193FF81914F01853239F4B6016C
S1130B5090E00E94490A52012501E5CF10E0F12CF2
S1130B6020E02032A0F48B3269F030F4803259F066
S1130B70833269F420612CC08D3239F0803339F42A
S1130B80216026C02260246023C0286021C027FD84
S1130B9027C030ED380F3A3078F426FF06C0FAE06B
S1130BA01F9F300D1124132F13C04AE0F49E300D03
S1130BB01124F32E20620CC08E3221F426FDEEC2E5
S1130BC0206406C08C3611F4206802C0883641F4D3
S1130BD0F40193FD859193FF81914F018111C1CF60
S1130BE09BEB980F933018F42061805E06C09BE95C
S1130BF0980F933008F071C12F7E26FF16E02F73F3
S1130C00322E853619F42064322E08C0863621F43B
S1130C10F22FF0683F2E02C01111115037FE07C0A9
S1130C201C3350F4EE24E394E10E27E00BC018309B
S1130C3038F027E017E005C027E04CE3E42E02C0BB
S1130C40212FE12C520144E0A40EB11CF201608179
S1130C507181828193810E2DA3010E945B092C0175
S1130C60098100FF02C003FF07C031FC08C032FE47
S1130C7009C030E2232E07C02DE2222E04C09BE2DD
S1130C80292E01C0212C802F8C7019F0211068C2EC
S1130C90A8C237FE0FC0E40C04FF04C08A8181336C
S1130CA009F4EA941E1474F5F8E0FE1578F588E06A
S1130CB0E82E2CC036FC2AC0812F90E084159505BF
S1130CC09CF02CEF42162FEF520674F0432D40682F
S1130CD0342E0AC0E2E0F0E0EC0FFD1FE10FF11D3D
S1130CE08081803319F411501111F4CF37FE0EC0F6
S1130CF0EE24E394E10E812F90E0481659062CF47B
S1130D00141904C0EE24E39401C010E037FE06C0B9
S1130D101414150434F4C201019605C085E090E072
S1130D2002C081E090E021100196112331F0212FBF
S1130D3030E02F5F3F4F820F931F2F2D30E082173B
S1130D40930714F4F81A01C0F12C832D897049F427
S1130D50FF2039F0B60180E290E00E94490AFA943B
S1130D60F7CF222029F0B601822D90E00E94490A93
S1130D7033FC09C0FF2039F0B60180E390E00E9403
S1130D80490AFA94F7CF37FE5AC0942D852D57FEA1
S1130D9002C090E080E0292E382E20E030E0A2014D
S1130DA04E1951095D874C87A201421953095F8787
S1130DB04E87612F70E044275527461B570B598BEC
S1130DC0488B5FEF2516350649F4B6018EE290E0B4
S1130DD02A8B3B8B0E94490A3B892A89421453047B
S1130DE06CF04C855D854215530544F4EE85FF8512
S1130DF0E20FF31FE60DF71D818101C080E351E08E
S1130E00251A31082F5F3F4F488959892416350622
S1130E104CF0B60190E02A8B3B8B0E94490A2A8948
S1130E203B89CFCF2414350439F49A81963318F4CE
S1130E30953311F404FF81E3B60190E04BC08A813D
S1130E40813309F00F7EB60190E00E94490A111126
S1130E5005C034FC18C085E690E017C0B6018EE2E8
S1130E6090E00E94490A82E0EE24E394E80EF30144
S1130E70E80FF11D8081B60190E00E94490A1150EB
S1130E808E2D91F7E6CF85E490E0B6010E94490AE1
S1130E9057FC05C04114510439F404FF05C05194B2
S1130EA0419451088DE201C08BE2B60190E00E94AA
S1130EB0490A80E39AE0491651042CF08F5F5AE006
S1130EC0451A5108F7CFB60190E00E94490AB601CD
S1130ED0C201C0960E94490A57C1833631F0833754
S1130EE079F0833509F058C021C05201E2E0AE0E1A
S1130EF0B11CF2018081898301E010E0230114C058
S1130F005201F2E0AF0EB11CF2014080518026FF85
S1130F1003C0612F70E002C06FEF7FEFC2012A8B24
S1130F200E943E0A8C012A892F7715C05201F2E0F3
S1130F30AF0EB11CF2014080518026FF03C0612F27
S1130F4070E002C06FEF7FEFC2012A8B0E94330A68
S1130F508C012A892068322E23FD1AC08F2D90E03F
S1130F6008171907A8F4B60180E290E00E94490A24
S1130F70FA94F4CFF20137FC859137FE81912F0169
S1130F80B60190E00E94490AF110FA940150110947
S1130F900115110579F7F8C0843611F0893659F531
S1130FA0520127FF09C0F4E0AF0EB11CF2016081C9
S1130FB07181828193810AC0F2E0AF0EB11CF2010B
S1130FC060817181072E000C880B990B2F76322ECD
S1130FD097FF09C090958095709561957F4F8F4FCD
S1130FE09F4F2068322E2AE030E0A3010E94A40A19
S1130FF0E82EE6183FC0022F853721F40F7E2AE041
S113100030E01DC0097F8F3691F018F4883559F00F
S1131010C5C0803719F0883711F0C0C0006104FFE3
S113102009C0046007C024FF08C0066006C028E0A9
S113103030E005C020E130E002C020E132E052019E
S113104007FF09C0F4E0AF0EB11CF20160817181A9
S11310508281938108C0F2E0AF0EB11CF20160817D
S1131060718180E090E0A3010E94A40AE82EE618B2
S11310700F77302E36FE0BC0332D3E7FE11650F431
S113108034FE0AC032FC08C0332D3E7E05C00E2D4E
S1131090332D03C00E2D01C0012F34FF0CC0FE01FF
S11310A0EE0DF11D8081803311F4397E08C032FFCA
S11310B005C00E5F04C0832F867809F00F5F33FDEF
S11310C013C030FF06C01E2D0F1518F41F0D101B82
S11310D00F2D0F1568F4B60180E290E03B8B0E945F
S11310E0490A0F5F3B89F5CF0F1510F4F01A01C0C0
S11310F0F12C34FF12C0B60180E390E03B8B0E94D8
S1131100490A3B8932FF17C031FD03C088E790E0EC
S113111002C088E590E0B6010CC0832F867859F0B0
S113112031FF02C08BE201C080E237FD8DE2B601DF
S113113090E00E94490AE11638F4B60180E390E099
S11311400E94490A1150F7CFEA94F301EE0DF11D04
S11311508081B60190E00E94490AE110F5CF14C0E5
S1131160F4E0FF1558F584E0F81A33FE1EC0211090
S113117026C003FF2AC008E610E0F32DF0713F2ECD
S1131180F8018491811124C0FF2009F4E5CCB60153
S113119080E290E00E94490AFA94F6CFF601868133
S11311A0978126C08FEF9FEF23C0B60180E290E0C5
S11311B00E94490AFA94F110F8CFD9CFF12CB60164
S11311C0822D90E00E94490AD4CF0CE610E0D5CFDE
S11311D031108052B60190E00E94490A0F5F1F4F00
S11311E0CFCF23E02F1510F483E0BECFF12CC1CF75
S11311F06396E2E10C943A09A1E21A2EAA1BBB1BE6
S1131200FD010DC0AA1FBB1FEE1FFF1FA217B307CE
S1131210E407F50720F0A21BB30BE40BF50B661FE4
S1131220771F881F991F1A9469F7609570958095A8
S113123090959B01AC01BD01CF0108952F923F927F
S11312404F925F926F927F928F929F92AF92BF92D2
S1131250CF92DF92EF92FF920F931F93CF93DF937E
S1131260CDB7DEB7CA1BDB0B0FB6F894DEBF0FBEDB
S1131270CDBF09942A88398848885F846E847D8428
S11312808C849B84AA84B984C884DF80EE80FD802A
S11312900C811B81AA81B981CE0FD11D0FB6F894A0
S11312A0DEBF0FBECDBFED010895EE0FFF1F059009
S11312B0F491E02D0994283008F027E03327DA016F
S11312C0990F311D87FD916000966105710539F410
S11312D032602E5F3D9330E32A95E1F708959F3FF6
S11312E030F080387105610509F03C5F3C5F3D9347
S11312F0913008F08068911DDF93CF931F930F9373
S1131300FF92EF92192F987F9695E92F96959695CF
S1131310E90FFF27E653FF4F99273327EE24FF24D5
S1131320A701E70105900894079428F4360FE71EF7
S1131330F81E491F511D660F771F881F991F0694B9
S1131340A1F70590079428F4E70EF81E491F561FCD
S1131350C11D770F881F991F661F0694A1F705907A
S1131360079428F4F80E491F561FC71FD11D880F74
S1131370991F661F771F0694A1F70590079420F420
S1131380490F561FC71FD81F990F661F771F881F45
S11313900694A9F784911095177041F0D695C795D6
S11313A057954795F794E7941A95C1F7E0E7F0E06D
S11313B068941590159135916591959105907FE20A
S11313C07395E118F10A430B560BC90BD009C0F70A
S11313D0E10CF11E431F561FC91FD01D7EF470334C
S11313E011F48A95E6CFE894015030F0080F0AF41E
S11313F00027021708F4202F2395022F7A3328F0B0
S113140079E37D932A95E9F710C07D932A9589F6AF
S1131410069497956795379517951794E118F10AEF
S1131420430B560BC90BD00998F023957E91739505
S11314307A3308F070E37C932013B8F77E917061DF
S11314407D9330F0839571E37D9370E32A95E1F702
S11314501124EF90FF900F911F91CF91DF91992765
S113146087FD90950895FC0105906150704001102E
S1131470D8F7809590958E0F9F1F0895FC016150B9
S1131480704001900110D8F7809590958E0F9F1FA2
S113149008950F931F93CF93DF93FB01238121FDC5
S11314A003C08FEF9FEF28C022FF16C046815781EB
S11314B0248135814217530744F4A081B1819D01F1
S11314C02F5F3F4F318320838C93268137812F5F99
S11314D03F4F3783268310C0EB01092F182F008458
S11314E0F185E02D0995892BE1F68E819F81019686
S11314F09F838E83812F902FDF91CF911F910F9126
S11315000895AEE0B0E0E7E8FAE00C942C090D8908
S11315101E8986E08C831A8309838FEF9FE79E835D
S11315208D83AE01475E5F4F6F89788DCE01019642
S11315300E9480052F813885F801E20FF31F108285
S11315402E96E4E00C944809FA01AA27283051F1B8
S1131550203181F1E8946F936E7F6E5F7F4F8F4FE0
S11315609F4FAF4FB1E03ED0B4E03CD0670F781F3F
S1131570891F9A1FA11D680F791F8A1F911DA11D24
S11315806A0F711D811D911DA11D20D009F468945D
S11315903F912AE0269F11243019305D3193DEF605
S11315A0CF010895462F4770405D4193B3E00FD0BB
S11315B0C9F7F6CF462F4F70405D4A3318F0495DA6
S11315C031FD4052419302D0A9F7EACFB4E0A69589
S11315D09795879577956795BA95C9F700976105AB
S11315E0710508959B01AC010A2E06945795479501
S11315F037952795BA95C9F7620F731F841F951FF6
S10B1600A01D0895F894FFCF2A
S11316083E20426F6F74696E672E2E2E000D0A00FD
S11316185B7B2253656E736F72223A25642C224FCA
S1131628626A223A25302E31662C22416D62223AB2
S113163825302E31662C2244697374616E636522E9
S11316483A5B25692C25302E31665D2C2275546948
S11316586D65223A256C757D0063616C2E2E2E0013
S1131668656D6973732E2E2E003E205265616420C9
S113167853656E736F72732E2E2E003E205365745D
S113168874696E67730031292043616C6962726101
S113169874650032292053657420456D6973736934
S11316A8766974790053657420453A2000256900E9
S10916B825640025780002
S9030000FC
